:040000004BEF00F0D2
:1000080029820E0135A10BEF00F00DEF00F020EF73
:1000180000F07CAE12EF00F016EF00F0116A112A22
:1000280017EF00F0116A113211327C5011187F0B52
:1000380011187C6E0E01359133AB25EF00F027EFD8
:1000480000F049EF00F080A62CEF00F030EF00F050
:10005800116A112A31EF00F0116A11461146114652
:1000680080501118F70B1118806E010E0D6E000EDE
:100078000E6E000E0F6E000E106E03EC01F00B0EEC
:10008800D46EDC0ED36E0E01339B2992110002EF61
:1000980002F012A052EF00F054EF00F057EF00F01A
:1000A8007F8058EF00F07F9012A25DEF00F05FEFC5
:1000B80000F062EF00F07F8263EF00F07F9212A4FD
:1000C80068EF00F06AEF00F06DEF00F079846EEFF2
:1000D80000F0799412A673EF00F075EF00F078EF56
:1000E80000F07E8C79EF00F07E9C12A87EEF00F085
:1000F80080EF00F083EF00F0798884EF00F07998C2
:1001080012AA89EF00F08BEF00F08EEF00F0798AE9
:100118008FEF00F0799A12AC94EF00F096EF00F0B0
:1001280099EF00F07E809AEF00F07E9012AE9FEF7C
:1001380000F0A1EF00F0A4EF00F07A80A5EF00F046
:100148007A9013A0AAEF00F0ACEF00F0AFEF00F048
:100158007A82B0EF00F07A921200000E1A6E000E4A
:100168001B6E000E1C6E000E1D6E16501710181018
:100178001910D8B4C2EF00F0C4EF00F0FAEF00F0A5
:10018800010E1E6ECEEF00F0D890163617361836D0
:1001980019361E2A19AED3EF00F0D5EF00F0C8EFDC
:1001A80000F0D8901A361B361C361D361650125CD5
:1001B800175013581850145819501558D8A0E7EF6D
:1001C80000F0E9EF00F0F2EF00F01650125E175061
:1001D800135A1850145A1950155A1A80D8901932AF
:1001E8001832173216321E2ED5EF00F01AC012F050
:1001F8001BC013F01CC014F01DC015F012002750CE
:100208002810D8A40AEF01F00CEF01F016EF01F066
:100218000D5023260E5024220F502522105026223E
:1002280030EF01F00DC001F00EC002F00FC003F076
:1002380010C004F0100E056E0E0E066E000E076E4E
:10024800000E086E48EC01F00150232602502422CB
:10025800035025220450262226500DE1800E235CEF
:10026800510E2458010E2558D8A03DEF01F03FEF5C
:1002780001F047EF01F0000E236E000E246E000E11
:10028800256E000E266E1200000E096E000E0A6E14
:10029800000E0B6E000E0C6E01A055EF01F057EF2B
:1002A80001F05FEF01F00550092606500A220750B9
:1002B8000B2208500C22D890053606360736083629
:1002C800D890043203320232013201500210031076
:1002D8000410D8A472EF01F074EF01F050EF01F0B0
:1002E80009C001F00AC002F00BC003F00CC004F012
:1002F800120080968896849E7C8E81868086E6ECA5
:1003080001F00BEC02F0000E136E010E126ED2EC2F
:1003180001F09FEC01F0BBEC01F01FC021F020C000
:1003280022F021C012F022C013F04DEC00F08FEF44
:1003380001F04BEF00F0879087928194869C81981A
:10034800819A8690829082928F808F8289848E8C07
:100358008988898A8E808A808A827F907F92799420
:100368007E9C7998799A7E907A907A92120023C02E
:1003780012F024C013F025C014F026C015F0100E9A
:10038800166E0E0E176E000E186E000E196EB1EC7A
:1003980000F012C01FF013C020F01200D6501F0B3F
:1003A8004009D66ED688D650F00B0809D66ED58887
:1003B80012C027F013C028F00B0ED46EDC0ED36EDB
:1003C800D58E1200868E0E01D251F80B0309D26F1A
:1003D800D351F80B0509D36FD083D089D183F8ECBA
:1003E80001F00E01D08F1200F30E0E01C617C69150
:1003F800C751E00B1409C76FC68F1200266A256A19
:10040800246A236A2990299200017DEF01F00E01E8
:0E0418002B81F28AF28C2181298BF28E120048
:020000040020DA
:10000000FF0FFF0FFF0FFF0FFF0FFF0FFF0FFF0F80
:020000040030CA
:0C000000AAFFFFFF9FFFFFFFFFFFFFFFB5
:00000001FF
