:040000005CEF00F0C1
:100008004C82E1CF2AF0E2CF2BF0D9CF2CF0DACF17
:100018002DF0F3CF2EF0F4CF2FF00E0135A117EF0E
:1000280000F019EF00F02CEF00F07CAE1EEF00F0AE
:1000380022EF00F0296A292A23EF00F0296A2932E1
:1000480029327C5029187F0B29187C6E0E013591B6
:1000580033AB31EF00F033EF00F04EEF00F0000E5D
:10006800286E010E276EC0EC08F04A504B10D8A439
:1000780040EF00F042EF00F048EF00F00B0ED46EB6
:10008800DB0ED36E4CEF00F0000ED46E000ED36E74
:100098000E01339B2FC0F4FF2EC0F3FF2DC0DAFFF3
:1000A8002CC0D9FF2BC0E2FF2AC0E1FF4C921100FF
:0400B80032EF09F02A
:050E0000002564000064
:100E060070EF07F020EE60F010EE09F0170EDBCF62
:100E1600E3FFE806FCE240C005F041C006F0D890CA
:100E260005360636FE0E0524076EFF0E0620086EF2
:100E3600090E0724D96E000E0820DA6EDECF21F0E7
:100E4600DDCF22F0020E40184110D8A42DEF07F096
:100E56002FEF07F046EF07F01C0E3E24056EF80E46
:100E66003F20066E030E0516000E061605500610E8
:100E7600D8A440EF07F042EF07F046EF07F0000E68
:100E8600226E1D0E216E424A432A484A492A080EFE
:100E960048184910D8A452EF07F054EF07F058EF5E
:100EA60007F0000E496E010E486E4250215C435019
:100EB6002258D8B061EF07F063EF07F06DEF07F047
:100EC600000E026E010E016EACEC09F0000E436ED0
:100ED600010E426E0306D8A0040603500410D8A4DF
:100EE60077EF07F079EF07F005EF07F01200000142
:100EF6007AA180EF07F082EF07F085EF07F07F8099
:100F060086EF07F07F907AA38BEF07F08DEF07F05F
:100F160090EF07F07F8291EF07F07F927AA596EF28
:100F260007F098EF07F09BEF07F079849CEF07F046
:100F360079947AA7A1EF07F0A3EF07F0A6EF07F0E1
:100F46007E8CA7EF07F07E9C7AA9ACEF07F0AEEF98
:100F560007F0B1EF07F07988B2EF07F079987AAB2E
:100F6600B7EF07F0B9EF07F0BCEF07F0798ABDEFEE
:100F760007F0799A7AADC2EF07F0C4EF07F0C7EF32
:100F860007F07E80C8EF07F07E907AAFCDEF07F0CE
:100F9600CFEF07F0D2EF07F07A80D3EF07F07A9021
:100FA6007BA1D8EF07F0DAEF07F0DDEF07F07A82E2
:100FB600DEEF07F07A9212008394839C82968294E5
:100FC600859685927B9C7B947A967A947D967D9283
:100FD600050E00017E6FDF0E7D6FBB0EE82EFED77D
:100FE6007D2FFCD77E2FFAD700D0030EFCEC08F03D
:100FF600D50EE82EFED700F0020EFCEC08F0D50E5A
:10100600E82EFED700F0000E00017B6F280EEAECFA
:1010160009F0D50EE82EFED700F0000E00017B6F1A
:10102600280EEAEC09F0D50EE82EFED700F0000EE9
:1010360000017B6F010EEAEC09F02A0E00017D6FBC
:101046008D0EE82EFED77D2FFCD700D0000E0001B6
:101056007B6F060EEAEC09F0000E00017B6F0E0EA8
:10106600EAEC09F0000E00017B6F0C0EEAEC09F0C9
:10107600120080968896849E7C8E8186808613ECEC
:101086000AF049EC0AF0000E00017B6F010E7A6F40
:10109600390E7C6F000E7D6F000E7E6F000E7F6F27
:1010A600110E806F000E816F000E826F000E836F2F
:1010B600000E856F060E846F000E876F010E866F19
:1010C600000E896F0B0E886F070E8B6FE60E8A6F08
:1010D60083EC08F0CEEC09F032EC0AF0DFEC07F016
:1010E6005EEC0AF07AC08CF07BC08DF08CC07AF092
:1010F6008DC07BF07AEC07F073EF08F05CEF00F040
:101106007AC04AF07BC04BF07CC044F07DC045F00D
:1011160080C078F081C079F084C042F085C043F089
:1011260086C048F087C049F088C040F089C041F0C9
:101136008AC03EF08BC03FF0D6501F0B4009D66EDA
:10114600D688D5884A504B10D8A4ACEF08F0AEEF3D
:1011560008F0B8EF08F0D650F00B0809D66E0B0E63
:10116600D46EDB0ED36EBEEF08F0F00ED616000E70
:10117600D46E000ED36ED58E12004A044B10D8A43E
:10118600C7EF08F0C9EF08F0F2EF08F027C001F04A
:1011960028C002F0000E046E0F0E036E00EC0AF07B
:1011A60001C027F002C028F0F2EF08F0464A472AAD
:1011B6003C0E46184710D8A4E3EF08F0E5EF08F018
:1011C600EFEF08F0000E476E000E466E000E266E1C
:1011D600010E256E87EC09F02706D8A028062750B1
:1011E6002810D8A4F9EF08F0FBEF08F0D9EF08F0C3
:1011F600120000017A6F00017AA104EF09F006EFF0
:1012060009F009EF09F07A860AEF09F07A967AA3CF
:101216000FEF09F011EF09F014EF09F07A8415EFDA
:1012260009F07A947AA51AEF09F01CEF09F01FEF7E
:1012360009F07D8620EF09F07D967AA725EF09F063
:1012460027EF09F02AEF09F07D822BEF09F07D9256
:1012560051EC0AF01A0EE82EFED700D012004A0E04
:10126600F66E140EF76E000EF86E00EE60F010EEDD
:101276001AF00900F5CFEEFFE550E150FAE1B00EA5
:10128600F66E140EF76E000EF86E00EE3EF010EEDF
:101296000CF00900F5CFEEFFE550E150FAE100EE63
:1012A60030F00E0EEE6AE806FDE14C904C92000E10
:1012B600F86E0E0EF76E00013CEF08F07DEF09F0B8
:1012C6000001784B792B180E78197911D8A46EEF96
:1012D60009F070EF09F07AEF09F0000E796F000E51
:1012E600786F000E046E010E036E03EC07F0230602
:1012F600D8A0240623502410D8A484EF09F086EF42
:1013060009F063EF09F01200A2EF09F0444A452AFA
:101316003C0E44184510D8A493EF09F095EF09F058
:101326009FEF09F0000E456E000E446E000E246E0F
:10133600010E236E61EC09F02506D8A0260625507D
:101346002610D8A4A9EF09F0ABEF09F089EF09F050
:101356001200C4EF09F0404A412A415009E10D0E3E
:10136600405CD8A0B9EF09F0BBEF09F0C1EF09F076
:10137600000E416E010E406E3E4A3F2A0106D8A07D
:10138600020601500210D8A4CBEF09F0CDEF09F008
:10139600AEEF09F01200879087928194869C81981F
:1013A600819A8690829082928F808F8289848E8C99
:1013B6008988898A8E808A808A827F907F927994B2
:1013C6007E9C7998799A7E907A907A9212000001A2
:1013D6007C6F00017BB102D07B9C01D07B8C00012D
:1013E6007C390F0BFCEC08F000017C51FCEC08F09A
:1013F600A00E00D0E82EFDD7120001500302F3CF55
:1014060005F0F4CF06F001500402F3500626025010
:101416000302F350062605C001F006C002F01200D2
:10142600868E0E01D251F80B0309D26FD351F80BF9
:101436000509D36FD083D089D1833FEC0AF00E0122
:10144600D08F12001F001C001F001E001F001E0070
:101456001F001F001E001F001E001F0001008186C6
:101466000E0192870F015899FC0E5817030E5F6FF5
:1014760060946088608E1200F30E0E01C617C69146
:10148600C751E00B1409C76FC68F12000E012B81DE
:10149600F28AF28C2181298BF28E12007B840A0E4D
:1014A600E82EFED700D07B941200E407010001006D
:1014B60001000100010078C07AF079C07BF01200CB
:020000040020DA
:10000000FF0FFF0FFF0FFF0FFF0FFF0FFF0FFF0F80
:020000040030CA
:0C000000AAFFFFFF9FFFFFFFFFFFFFFFB5
:00000001FF
