:0400000042EF00F0DB
:100008000A820E0135A10BEF00F00DEF00F021EF91
:1000180000F080A612EF00F016EF00F0016A012A46
:1000280017EF00F0016A01460146014680500118A9
:10003800F70B0118806E0E01359133AB26EF00F0F7
:1000480028EF00F040EF00F080A62DEF00F031EF30
:1000580000F0016A012A32EF00F0016A0146014608
:10006800014680500118F70B0118806E0E01339B72
:100078000B0ED46EDC0ED36E0A9211001BEF01F04A
:1000880008A049EF00F04BEF00F04EEF00F07F8042
:100098004FEF00F07F9008A254EF00F056EF00F009
:1000A80059EF00F07F825AEF00F07F9208A45FEFCB
:1000B80000F061EF00F064EF00F0798465EF00F084
:1000C800799408A66AEF00F06CEF00F06FEF00F08B
:1000D8007E8C70EF00F07E9C08A875EF00F077EF3B
:1000E80000F07AEF00F079887BEF00F0799808AAA1
:1000F80080EF00F082EF00F085EF00F0798A86EF5C
:1001080000F0799A08AC8BEF00F08DEF00F090EFDB
:1001180000F07E8091EF00F07E9008AE96EF00F040
:1001280098EF00F09BEF00F07A809CEF00F07A9057
:1001380009A0A1EF00F0A3EF00F0A6EF00F07A828B
:10014800A7EF00F07A921200879087928194869C9C
:100158008198819A8690829082928F808F828984FA
:100168008E8C8988898A8E808A808A827F907F9205
:1001780079947E9C7998799A7E907A907A921200F6
:10018800809688968086DAEC00F013EC01F0ECECAF
:1001980000F0A8EC00F0FCEC00F00350086E096ACF
:1001A80044EC00F0CFEF00F042EF00F0868E0E0135
:1001B800D251F80B0309D26FD351F80B0509D36F4D
:1001C800D083D089D18309EC01F00E01D08F1200C1
:1001D800D6501F0B4009D66ED688D650F00B0809AA
:1001E800D66ED5880B0ED46EDC0ED36ED58E12006B
:1001F800D3CF04F0056AD450076E066A065004107F
:10020800026E07500510036E1200F30E0E01C6179A
:10021800C691C751E00B1309C76FC68F12000E01B4
:100228002B81F28AF28C2181298BF28E12000A909E
:080238000A920001C4EF00F07E
:020000040020DA
:10000000FF0FFF0FFF0FFF0FFF0FFF0FFF0FFF0F80
:020000040030CA
:0C000000AAFFFFFF9FFFFFFFFFFFFFFFB5
:00000001FF
