:040000002FEF00F0EE
:100008005B82D9CF03F0DACF04F00E0133AB0FEFE8
:1000180000F011EF00F029EF00F0D1EC0BF0000137
:10002800CA51CB11D8A41BEF00F01DEF00F023EF4D
:1000380000F00B0ED46EDB0ED36E27EF00F0000E2F
:10004800D46E000ED36E0E01339B04C0DAFF03C0DA
:0A005800D9FF5B921100F0EF0FF0EA
:100E000000253031750025303275002530337500EE
:100E10005745440054554500465249004D4F4E0039
:100E200053554E0053415400544855002575000059
:100E300042C0D9FF43C0DAFFDECFF6FFDDCFF7FFB8
:100E4000000EF86E0800F550250AD8A42AEF07F026
:100E50002CEF07F069EF08F042C0D9FF43C0DAFF7A
:100E6000DE2A000EDD22000E0001DD6F000EDC6FB9
:100E7000DCC058F0DE69DF69000E536E000E526E62
:100E80006EEF07F0588242C0D9FF43C0DAFFDE2A76
:100E9000000EDD226EEF07F0000E536E010E526E53
:100EA0006EEF07F042C0D9FF43C0DAFFDECFF6FF96
:100EB000DDCFF7FF000EF86E0800F550466E476A6A
:100EC0004750000AD8B467EF07F04CEF07F04650E0
:100ED000300AD8B442EF07F04CEF07F052505310ED
:100EE000D8B475EF07F077EF07F052EF07F042C084
:100EF000D9FF43C0DAFFDECFF6FFDDCFF7FF000EEC
:100F0000F86E0800F5502A0AD8A489EF07F08BEF95
:100F100007F0B5EF07F042C0D9FF43C0DAFFDE2A81
:100F2000000EDD2244C0D9FF45C0DAFFDFCF46F016
:100F3000020EDE26DFCF47F0000EDD2246C0D9FFCD
:100F400047C0DAFFDECFDCF0DDCFDDF00001DDBF32
:100F5000AEEF07F0ACEF07F0EAEF07F05880DC6D7A
:100F6000DD1FD8B0DD2BEAEF07F042C0D9FF43C048
:100F7000DAFFDECF0BF0DDCF0CF022EC0BF00BC074
:100F8000DCF00CC0DDF0CCEF07F042C0D9FF43C06D
:100F9000DAFFDE2A000EDD2242C0D9FF43C0DAFFAD
:100FA000DECFF6FFDDCFF7FF000EF86E0800F5CFBD
:100FB00046F0D00E4624476E486AFF0E482248503D
:100FC00009E10A0E475CD8A0E8EF07F0EAEF07F066
:100FD000C5EF07F042C0D9FF43C0DAFFDECF54F0BF
:100FE000DDCF55F054C0F6FF55C0F7FF000EF86E88
:100FF0000800F550750AD8A400EF08F002EF08F0D9
:1010000060EF08F044C0D9FF45C0DAFFDFCF46F0FB
:10101000020EDE26DFCF47F0000EDD2246C0D9FFEC
:1010200047C0DAFFDECF48F0DDCF49F048C04AF0D4
:1010300049C04BF04C6A4D6A4E6A4F6A506A516A19
:10104000010E5424466E000E5520476E42C0D9FF53
:1010500043C0DAFF46C0DEFF47C0DDFF48EF08F0BF
:1010600040C020F041C021F04AC022F04BC023F024
:101070004CC024F04DC025F04EC026F04FC027F0E4
:1010800050C028F051C029F080EC08F07FEF08F044
:1010900054C0F6FF55C0F7FF000EF86E0800F5507B
:1010A000466E476A4750000AD8B459EF08F060EF1F
:1010B00008F04650750AD8B430EF08F060EF08F039
:1010C00042C0D9FF43C0DAFFDE2A000EDD227FEFE7
:1010D00008F042C0D9FF43C0DAFFDECFF6FFDDCF14
:1010E000F7FF000EF86E0800F550056E066A40C066
:1010F00007F041C008F053EC0EF060EF08F012006A
:101100000001DFBF86EF08F088EF08F089EF08F0F4
:101110005892DFBF96EF08F0DF5106E1DE05D8B048
:1011200094EF08F096EF08F09CEF08F0000E336E95
:10113000010E326EA0EF08F0DEC032F0DFC033F0F7
:10114000DCC034F0DDC035F022C036F023C037F00B
:1011500024C038F025C039F026C03AF027C03BF053
:1011600028C03CF029C03DF0000E3F6E1F0E3E6EC1
:10117000000E01011F6F33EF09F03E06D8A03F06B5
:10118000000E3E24D96E010E3F20DA6E36C005F007
:1011900037C006F038C007F039C008F03AC009F08F
:1011A0003BC00AF03CC00BF03DC00CF00A0E0D6EC7
:1011B000000E0E6E000E0F6E000E106E000E116E01
:1011C000000E126E000E136E000E146EEBEC0DF09E
:1011D00005C02AF006C02BF007C02CF008C02DF087
:1011E00009C02EF00AC02FF00BC030F00CC031F057
:1011F0002A50300FDF6E3206D8A033063406D8A04E
:10120000350636C005F037C006F038C007F039C0E3
:1012100008F03AC009F03BC00AF03CC00BF03DC0FA
:101220000CF00A0E0D6E000E0E6E000E0F6E000E0C
:10123000106E000E116E000E126E000E136E000E78
:10124000146E04EC0DF005C036F006C037F007C090
:1012500038F008C039F009C03AF00AC03BF00BC0C2
:101260003CF00CC03DF03E503F10D8B43AEF09F0CE
:101270003CEF09F06CEF09F0365037103810391098
:101280003A103B103C103D10D8A449EF09F04BEF49
:1012900009F0BDEF08F033BE58EF09F0335006E116
:1012A0003204D8B056EF09F058EF09F0BDEF08F05E
:1012B00035BE63EF09F0355008E13404D8A063EF80
:1012C00009F065EF09F06CEF09F058B26AEF09F028
:1012D0006CEF09F0BDEF08F020C015F021C016F04A
:1012E000000E3E24176E010E3F20186E34C019F018
:1012F00035C01AF014EC0FF01200BDEC10F09AECAF
:1013000011F069EC0FF086EC11F0BEEC11F0C2C0E8
:1013100083F0C3C084F0C4C085F0C5C086F001EC82
:1013200011F09E0E00017B6F000E7C6FA5EC11F09A
:1013300005C07DF006C07EF0000E0001806F020E39
:101340007F6FB8EC0EF0A00E00017B6F000E7C6F7B
:10135000AFEC11F005C07DF006C07EF0000E00017C
:10136000806F020E7F6FB8EC0EF0A20E00017B6F53
:10137000000E7C6FB4EC11F005C07DF006C07EF06D
:10138000000E0001806F020E7F6FB8EC0EF0A40E0D
:1013900000017B6F000E7C6FB9EC11F005C07DF091
:1013A00006C07EF0000E0001806F020E7F6FB8EC69
:1013B0000EF0A60E00017B6F000E7C6FAAEC11F000
:1013C000010E052400017D6F000E06207E6F000EC9
:1013D000806F020E7F6FB8EC0EF0870E00017B6FFE
:1013E000000E7C6FA0EC11F005C07DF006C07EF011
:1013F000000E0001806F040E7F6FB8EC0EF08B0EB4
:1014000000017B6F000E7C6F21EC11F005C07DF0B8
:1014100006C07EF0000E0001806F030E7F6FB8ECF7
:101420000EF020EE8EF00F0EDE6AE806FDE27CEC98
:101430000DF005C08EF006C08FF0A40E0001906F75
:10144000000E916FA60E926F000E936F870E946F31
:10145000000E956FA20E966F000E976FA00E986FFC
:10146000000E996F9E0E9A6F000E9B6F8B0E9C6FF5
:10147000000E9D6F8E0E0A6E000E0B6E5FEC0AF072
:10148000B4EC11F005C009F006C00AF021EC11F02F
:1014900005C00BF006C00CF073EC10F0090E000153
:1014A000826F1E0E816FE40EE82EFED7812FFCD7CF
:1014B000822FFAD700F08FEF09F02FEF00F0000E27
:1014C0000F6E000E0E6E0EC008F00FC009F07DEC1E
:1014D0000CF091EF0AF0010E066ED8900E34D96E22
:1014E0000F34DA6E0A50D9260B50DA22DFCF0CF017
:1014F000010EDE26DFCF0DF0000EDD220CC0F6FF60
:101500000DC0F7FF000EF86E0D0EF76403D0080053
:10151000F55005D0F6CFE9FFF7CFEAFFEF5074ECB6
:1015200011F0D8900E34D96E0F34DA6E0A50D926E5
:101530000B50DA22DECF0CF0DDCF0DF00CC0F6FF41
:101540000DC0F7FF000EF86E0D0EF76403D0080013
:10155000F55005D0F6CFE9FFF7CFEAFFEF500009CD
:10156000D8A4B5EF0AF0B7EF0AF06BEF0AF0000E5F
:10157000066EC20E74EC11F0010E066E3A0E74EC9B
:1015800011F0000E066EC50E74EC11F0010E066E21
:101590002E0E74EC11F0000E066EC80E74EC11F0F5
:1015A000010E066E200E74EC11F0000E066EC90ED0
:1015B00074EC11F0010E066E200E74EC11F0000EAA
:1015C000066ECA0E74EC11F0010E066E200E74EC5D
:1015D00011F0000E066ECB0E74EC11F0010E066ECB
:1015E000200E74EC11F0000E066ECC0E74EC11F0AF
:1015F000010E066E200E74EC11F0000E066E880EC1
:1016000074EC11F0010E066E2F0E74EC11F0000E4A
:10161000066E8B0E74EC11F0010E066E2F0E74EC3C
:1016200011F00E4A0F2A0FBE1FEF0BF00F5009E109
:10163000080E0E5CD8A01FEF0BF021EF0BF063EF4C
:101640000AF01200000E136E000E126E000E116EE4
:10165000000E106E2EEF0BF00B4A0C2A0BC0F6FF9B
:101660000CC0F7FF000EF86E0800F550200AD8B441
:101670003CEF0BF03EEF0BF02CEF0BF00BC0F6FF46
:101680000CC0F7FF000EF86E0800F5CF0DF0F70E56
:101690000D240E6E0F6AFF0E0F220F5009E1050E8A
:1016A0000E5CD8A056EF0BF058EF0BF02CEF0BF0C0
:1016B00062EF0BF0000E116E010E106E0B4A0C2A39
:1016C0009BEF0BF00BC0F6FF0CC0F7FF000EF86E9F
:1016D0000800F5500D6E0E6A0E50000AD8B473EF74
:1016E0000BF09BEF0BF00D502B0AD8B45EEF0BF014
:1016F000060AD8B45AEF0BF09BEF0BF012C005F0BE
:1017000013C006F0000E086E0A0E076E4FEC11F0C3
:101710000BC0F6FF0CC0F7FF000EF86E0800F55086
:10172000055E000E065A300E0524126E000E0620CD
:10173000136E5EEF0BF00BC0F6FF0CC0F7FF000E50
:10174000F86E0800F5CF0DF0D00E0D240E6E0F6A66
:10175000FF0E0F220F5009E10A0E0E5CD8A0B3EF66
:101760000BF0B5EF0BF07EEF0BF010501110D8A47A
:10177000BCEF0BF0BEEF0BF0CCEF0BF012C00DF096
:1017800013C00EF00D1E0E1E0D4A0E2A0DC00BF0DA
:101790000EC00CF0D0EF0BF012C00BF013C00CF029
:1017A00012000001CA51CB11D8A4D9EF0BF0DBEF26
:1017B0000BF0DFEF0BF0E44BE52BE3EF0BF00F0E3C
:1017C000E427000EE5233C0EE419E511D8A4EBEF65
:1017D0000BF0EDEF0BF0F3EF0BF0000EE56F000EEA
:1017E000E46FE24BE32B3C0EE219E311D8A4FBEFCC
:1017F0000BF0FDEF0BF003EF0CF0000EE36F000EAB
:10180000E26FE04BE12B180EE019E111D8A40BEFC9
:101810000CF00DEF0CF015EF0CF0000EE16F000E68
:10182000E06FC84BC92B594A5A2A070E59185A104B
:10183000D8A41DEF0CF01FEF0CF023EF0CF0000EFE
:101840005A6E000E596E56045710D8A42AEF0CF0A9
:101850002CEF0CF04DEF0CF0030EC615016E000ED0
:10186000C715026E01500210D8A439EF0CF03BEFFF
:101870000CF04DEF0CF01E0EC819C911D8A443EF9F
:101880000CF045EF0CF06CEF0CF0000EC96F010E80
:10189000C86F564A572A6CEF0CF0D8905634D96E60
:1018A0005734DA6EAA0ED926000EDA22DECF01F006
:1018B000DDCF02F0010E0126000E0222C8510118F0
:1018C00007E1C9510218D8A468EF0CF06AEF0CF0D8
:1018D0006CEF0CF045EF0CF00C0E56185710D8A416
:1018E00074EF0CF076EF0CF07CEF0CF0000E576EFE
:1018F000000E566EC64BC72B120008500910D8A414
:1019000084EF0CF086EF0CF08DEF0CF0000E066EFD
:10191000800E74EC11F003EF0DF008040910D8A448
:1019200094EF0CF096EF0CF09DEF0CF0000E066EAD
:10193000860E74EC11F003EF0DF0020E081809107A
:10194000D8A4A5EF0CF0A7EF0CF0AEEF0CF0000E52
:10195000066E890E74EC11F003EF0DF0030E0818FB
:101960000910D8A4B6EF0CF0B8EF0CF0BFEF0CF0F4
:10197000000E066E8C0E74EC11F003EF0DF0040EE9
:1019800008180910D8A4C7EF0CF0C9EF0CF0D0EF7D
:101990000CF0000E066EC00E74EC11F003EF0DF0AB
:1019A000050E08180910D8A4D8EF0CF0DAEF0CF0E7
:1019B000E1EF0CF0000E066EC30E74EC11F003EFB5
:1019C0000DF0060E08180910D8A4E9EF0CF0EBEFA3
:1019D0000CF0F2EF0CF0000E066EC60E74EC11F077
:1019E00003EF0DF0070E08180910D8A4FAEF0CF059
:1019F000FCEF0CF003EF0DF0000E066ECD0E74EC54
:101A000011F003EF0DF0120020EE15F0070EDE6A64
:101A1000E806FDE20D500E100F10101011101210FC
:101A200013101410D8B417EF0DF019EF0DF06BEF81
:101A30000DF0010E1D6E27EF0DF0D8900D360E360D
:101A40000F36103611361236133614361D2A14AEE0
:101A50002CEF0DF02EEF0DF01DEF0DF0D890153698
:101A600016361736183619361A361B361C360D50F0
:101A7000055C0E5006580F5007581050085811506A
:101A8000095812500A5813500B5814500C58D8A02B
:101A90004CEF0DF04EEF0DF05FEF0DF00D50055EC9
:101AA0000E50065A0F50075A1050085A1150095A32
:101AB00012500A5A13500B5A14500C5A1580D890D1
:101AC000143213321232113210320F320E320D3202
:101AD0001D2E2EEF0DF015C005F016C006F017C034
:101AE00007F018C008F019C009F01AC00AF01BC0AE
:101AF0000BF01CC00CF0120059505A10D8A483EF00
:101B00000DF085EF0DF08BEF0DF01C0E056E0E0E37
:101B1000066EEAEF0DF059045A10D8A492EF0DF0BA
:101B200094EF0DF09AEF0DF0140E056E0E0E066E8A
:101B3000EAEF0DF0020E59185A10D8A4A2EF0DF0DA
:101B4000A4EF0DF0AAEF0DF0100E056E0E0E066E4E
:101B5000EAEF0DF0030E59185A10D8A4B2EF0DF0A9
:101B6000B4EF0DF0BAEF0DF0280E056E0E0E066EF6
:101B7000EAEF0DF0040E59185A10D8A4C2EF0DF078
:101B8000C4EF0DF0CAEF0DF0180E056E0E0E066EC6
:101B9000EAEF0DF0050E59185A10D8A4D2EF0DF047
:101BA000D4EF0DF0DAEF0DF0240E056E0E0E066E7A
:101BB000EAEF0DF0060E59185A10D8A4E2EF0DF016
:101BC000E4EF0DF0EAEF0DF0200E056E0E0E066E3E
:101BD000EAEF0DF012000D500E100F101010111042
:101BE000121013101410D8B4F8EF0DF0FAEF0DF036
:101BF00042EF0EF0010E156E08EF0EF0D8900D3684
:101C00000E360F3610361136123613361436152AA4
:101C100014AE0DEF0EF00FEF0EF0FEEF0DF00D50C5
:101C2000055C0E5006580F500758105008581150B8
:101C3000095812500A5813500B5814500C58D8A079
:101C400024EF0EF026EF0EF036EF0EF00D50055E8D
:101C50000E50065A0F50075A1050085A1150095A80
:101C600012500A5A13500B5A14500C5AD89014326E
:101C700013321232113210320F320E320D32152E53
:101C80000FEF0EF005C005F006C006F007C007F024
:101C900008C008F009C009F00AC00AF00BC00BF038
:101CA0000CC00CF0120007500810D8B45AEF0EF018
:101CB0005CEF0EF065EF0EF007500810D8A463EF4C
:101CC0000EF065EF0EF06AEF0EF00550C1EC11F06A
:101CD000B7EF0EF020EE09F00750D9260850DA22AF
:101CE000DE50DE10D8B477EF0EF079EF0EF094EFFF
:101CF0000EF020EE09F00750D9260850DA2210EE37
:101D000003F00750E1260850E222DE50E65CE65080
:101D1000800A0D6EDE50800A0D58D8B092EF0EF09A
:101D200094EF0EF0B7EF0EF020EE03F00750D92637
:101D30000850DA22DECF09F0DDCF0AF007C0D9FF64
:101D400008C0DAFFDECF0BF0DDCF0CF009500B241A
:101D5000D96E0A500C20DA6E05C0DFFF20EE03F0CA
:101D60000750D9260850DA22DE2A000EDD221200A2
:101D700000017F518011D8A4C0EF0EF0C2EF0EF029
:101D8000D2EF0EF07BC068F07CC069F02C0E6A6F59
:101D90000E0E6B6F7DC06CF07EC06DF04AEC10F0E3
:101DA00013EF0FF07F058011D8A4D9EF0EF0DBEF11
:101DB0000EF0EBEF0EF07BC068F07CC069F0010E16
:101DC0006A6F0E0E6B6F7DC06CF07EC06DF04AECDA
:101DD00010F013EF0FF0020E7F198011D8A4F3EF6B
:101DE0000EF0F5EF0EF005EF0FF07BC068F07CC051
:101DF00069F0060E6A6F0E0E6B6F7DC06CF07EC0D0
:101E00006DF04AEC10F013EF0FF07BC068F07CC06F
:101E100069F00B0E6A6F0E0E6B6F7DC06CF07EC0AA
:101E20006DF04AEC10F0120058A019EF0FF01BEF04
:101E30000FF025EF0FF017C00EF018C00FF015C00F
:101E400010F016C011F0DFEC10F01ABE2AEF0FF000
:101E50002CEF0FF032EF0FF019C01EF01AC01FF078
:101E600036EF0FF0000E1F6E000E1E6E000E1D6E80
:101E7000000E1C6E48EF0FF0000E066E200E056E71
:101E800015C007F016C008F053EC0EF01C4A1D2ACE
:101E90001E501C5C1D50800A1B6E1F50800A1B5870
:101EA000D8A055EF0FF057EF0FF03CEF0FF058B000
:101EB0005CEF0FF05EEF0FF068EF0FF017C00EF061
:101EC00018C00FF015C010F016C011F0DFEC10F0C4
:101ED00012008394839C82968294859685927B9C43
:101EE0007B947A967A947D967D92050E096EDF0E2C
:101EF000086EBC0EE82EFED7082EFCD7092EFAD7A6
:101F0000030EBCEC0FF0D50EE82EFED700F0020E4B
:101F1000BCEC0FF0D50EE82EFED700F0000E066EDA
:101F2000280E74EC11F0D50EE82EFED700F0000E4E
:101F3000066E280E74EC11F0D50EE82EFED700F0D8
:101F4000000E066E010E74EC11F02A0E086E8E0E55
:101F5000E82EFED7082EFCD7000E066E060E74EC97
:101F600011F0000E066E0E0E74EC11F0000E066EEF
:101F70000C0E74EC11F01200056E05A0C2EF0FF00C
:101F8000C4EF0FF0C7EF0FF07A86C8EF0FF07A9624
:101F900005A2CDEF0FF0CFEF0FF0D2EF0FF07A8464
:101FA000D3EF0FF07A9405A4D8EF0FF0DAEF0FF02B
:101FB000DDEF0FF07D86DEEF0FF07D9605A6E3EFF7
:101FC0000FF0E5EF0FF0E8EF0FF07D82E9EF0FF093
:101FD0007D9293EC11F01A0EE82EFED700D012007D
:101FE000C40EF66E220EF76E000EF86E00EEA8F02C
:101FF00010EE24F00900F5CFEEFFE550E150FAE1D4
:10200000800EF66E230EF76E000EF86E0900F5CF07
:1020100059F00900F5CF5AF001EE00F0200EEE6AFB
:10202000E806FDE100EECCF01A0EEE6AE806FDE1EE
:10203000586A576A566A5B905B9200017DEF09F01F
:1020400062C066F063C067F034EF10F060C040F02B
:1020500061C041F0660E426E000E436E64C044F0F3
:1020600065C045F018EC07F066C0F6FF67C0F7FFE3
:10207000000EF86E0800F5500009D8A442EF10F0E9
:1020800044EF10F026EF10F0000E0001616F000E1B
:10209000606F12006C0E00016E6F000E6F6F68C0F3
:1020A00070F069C071F0000E746F000E736F000E57
:1020B0007A6F000E796F700E606F000E616F6AC0EC
:1020C00062F06BC063F06E0E646F000E656F20EC03
:1020D00010F0000173516825D96E74516921DA6ED0
:1020E000000EDF6E120009500A10D8B47AEF10F01B
:1020F0007CEF10F08AEF10F00A5007E1050E095C42
:10210000D8B085EF10F087EF10F08AEF10F08096CE
:1021100099EF10F00C5007E10A0E0B5CD8B093EF6A
:1021200010F095EF10F098EF10F0808699EF10F016
:1021300080961200010E096E200E05180610D8B404
:10214000A4EF10F0A6EF10F0B9EF10F0F70E052491
:10215000076EFF0E0620086E085009E1050E075CA9
:10216000D8A0B5EF10F0B7EF10F0B9EF10F0000EF7
:10217000096E09C005F0066A1200D6501F0B40090F
:10218000D66ED6880001CA51CB11D8A4CAEF10F080
:10219000CCEF10F0D6EF10F0D650F00B0809D66E49
:1021A0000B0ED46EDB0ED36EDCEF10F0F00ED616F5
:1021B000000ED46E000ED36ED588D58E1200000EA0
:1021C000146E000E136EF0EF10F012C005F0066AE8
:1021D00010C007F011C008F053EC0EF0134A142A97
:1021E00013500E24D96E14500F20DA6EDF50126E89
:1021F0001250D8A4FEEF10F000EF11F0E5EF10F050
:102200001200D50EE82EFED700F0000E066E010E6D
:1022100074EC11F02A0E086E8E0EE82EFED7082EF2
:10222000FCD7000E066E060E74EC11F0000E066E62
:102230000E0E74EC11F0000E066E0C0E74EC11F024
:102240001200608060B027EF11F029EF11F022EF4B
:1022500011F064CF07F0086A0750FF08076E0850B6
:10226000D8A0E82A0008086E07C005F008C006F0EC
:102270001200D00E0524076EFF0E0620086E0850CF
:102280000AE10A0E075CD8A048EF11F04BEF11F0FD
:10229000010E4CEF11F0000E056E066A120005509B
:1022A0000702F3CF09F0F4CF0AF005500802F3500B
:1022B0000A2606500702F3500A2609C005F00AC094
:1022C00006F0120000001F001C001F001E001F006F
:1022D0001E001F001F001E001F001E001F004D4F8C
:1022E0004E00E40701000100076E06B002D07B9C9F
:1022F00001D07B8C07380F0BBCEC0FF00750BCEC07
:102300000FF0A00E00D0E82EFDD7120081860E013E
:1023100092870F015899FC0E5817030E5F6F609457
:102320006088608E12007B840A0EE82EFED700D0F3
:102330007B941200F28C0E01298B2B81F28E1200FD
:10234000C6C005F0C7C006F01200E4C005F0E5C045
:1023500006F0120056C005F057C006F01200E2C0A9
:1023600005F0E3C006F01200E0C005F0E1C006F0A1
:102370001200C8C005F0C9C006F01200889612000D
:042380000200120045
:020000040020DA
:10000000FF0FFF0FFF0FFF0FFF0FFF0FFF0FFF0F80
:020000040030CA
:0C000000AAFFFFFF9FFFFFFFFFFFFFFFB5
:00000001FF
