:0400000058EF00F0C5
:100008004C82E1CF28F0E2CF29F0D9CF2AF0DACF1D
:100018002BF00E0135A113EF00F015EF00F028EFDB
:1000280000F07CAE1AEF00F01EEF00F0276A272AD6
:100038001FEF00F0276A273227327C5027187F0BE2
:1000480027187C6E0E01359133AB2DEF00F02FEFA2
:1000580000F04EEF00F0010E236E000E246E000E2D
:10006800256E000E266E65EC05F04A504B10D8A49C
:1000780040EF00F042EF00F048EF00F00B0ED46EB6
:10008800DC0ED36E4CEF00F0000ED46E000ED36E73
:100098000E01339B2BC0DAFF2AC0D9FF29C0E2FF2B
:1000A80028C0E1FF4C92110033EF07F000017151B5
:1000B800800B7E6F71517125856F70AF66EF00F010
:1000C80068EF00F069EF00F085818551D8B46FEFD3
:1000D80000F071EF00F086EF00F08529D8A477EFE3
:1000E80000F079EF00F081EF00F0000E6E6F000E67
:1000F8006F6F000E706F000E716F708F000E716F52
:100108008EEF00F0000E6E6F000E6F6F000E706FB6
:10011800000E716F7551800B7E1B75517525866FAA
:1001280074AF99EF00F09BEF00F09CEF00F0868130
:100138008651D8B4A2EF00F0A4EF00F0B9EF00F0B8
:100148008629D8A4AAEF00F0ACEF00F0B4EF00F0D5
:10015800000E726F000E736F000E746F000E756FD5
:10016800748F000E756FC1EF00F0000E726F000EF5
:10017800736F000E746F000E756F725173117411E6
:100188007511D8A4CAEF00F0CCEF00F0E4EF00F04E
:10019800000E6E6F000E6F6F000E706F000E716FA5
:1001A800800E70137F0E71137E5171136EC06EF046
:1001B8006FC06FF070C070F071C071F027EF02F07F
:1001C8008551D8A4EAEF00F0ECEF00F0F6EF00F06C
:1001D800000E6E6F000E6F6F000E706F000E716F65
:1001E80027EF02F0865185C076F0776B765F000EB8
:1001F800775B7F0E76257F6F000E7721806F6EC04C
:100208007AF06FC07BF070C07CF071C07DF0000E9A
:100218006E6F000E6F6F000E706F000E716F000E24
:10022800816F000E826F000E836F000E846F000EC8
:10023800866F57EF01F08651D8B425EF01F027EF0C
:1002480001F03EEF01F0D8907A377B377C377D3765
:10025800D8906E376F377037713784AF36EF01F04B
:1002680038EF01F039EF01F06E81D890813782378D
:100278008337843772517A5D73517B5974517C5935
:1002880075517D59D8A04BEF01F04DEF01F056EFB5
:1002980001F0848D72517A5F73517B5B74517C5B82
:1002A80075517D5B862B190E86655DEF01F05FEF5A
:1002B80001F01FEF01F07A517B117C117D11D8B448
:1002C80068EF01F06AEF01F082EF01F0818182EFBF
:1002D80001F0D8906E376F377037713784AF77EF8A
:1002E80001F079EF01F07AEF01F06E81D890813753
:1002F8008237833784377F07D8A0800770AF87EFAE
:1003080001F089EF01F06DEF01F0000E866F84AF08
:1003180090EF01F092EF01F0B6EF01F0FF0E8115BA
:10032800766FFF0E8215776FFF0E8315786F7F0E3D
:100338008415796F7651771178117911D8B4A7EFB0
:1003480001F0A9EF01F0ADEF01F0010E866FB6EFF5
:1003580001F06EA1B2EF01F0B4EF01F0B6EF01F0D9
:10036800A9EF01F08651D8B4BCEF01F0BEEF01F05F
:10037800E2EF01F0010E6E27000E6F237023712348
:1003880071A1C9EF01F0CBEF01F0E2EF01F06EC00F
:1003980076F06FC077F070C078F071C079F0793579
:1003A800793378337733763376C06EF077C06FF071
:1003B80078C070F079C071F07F4B802B80BFEDEF73
:1003C80001F0805108E17F29D8A0EDEF01F0EFEFAF
:1003D80001F0FAEF01F0000E806F7F69000E6E6F7A
:1003E800000E6F6F000E706F000E716F80BF07EF09
:1003F80002F0805106E17F05D8B005EF02F007EF63
:1004080002F015EF02F0000E806F000E7F6F000EF5
:100418006E6F000E6F6F000E706F000E716F000E22
:100428007E6F7FC085F085A11CEF02F01EEF02F001
:1004380021EF02F0708F22EF02F0709FD890853183
:10044800716FD8EF00F012000001686F0001685169
:10045800D8B431EF02F033EF02F055EF02F063BF8A
:100468003AEF02F038EF02F055EF02F060C064F0A6
:1004780061C065F062C066F063C067F0641F651F05
:10048800661F671F642B000E65236623672364C0FD
:100498006AF065C06BF066C06CF067C06DF05DEF28
:1004A80002F060C06AF061C06BF062C06CF063C0BB
:1004B8006DF06051611162116311D8A466EF02F00A
:1004C80068EF02F072EF02F0000E606F000E616FCD
:1004D800000E626F000E636F03EF03F0960E696FF4
:1004E8007CEF02F0692BD8906D336C336B336A3331
:1004F800000E6A15646F000E6B15656F000E6C15A3
:10050800666FFE0E6D15676F645165116611671190
:10051800D8A491EF02F093EF02F076EF02F0A1EF8A
:1005280002F0692B010E6A27000E6B236C236D23E2
:10053800D8906D336C336B336A33000E6A15646F71
:10054800000E6B15656F000E6C15666FFF0E6D154E
:10055800676F6451651166116711D8A4B6EF02F090
:10056800B8EF02F095EF02F0C0EF02F06907D890FB
:100578006A376B376C376D376CBFC5EF02F0C7EF62
:1005880002F0CFEF02F0020E6961CDEF02F0CFEF7B
:1005980002F0BAEF02F069B1D4EF02F0D6EF02F040
:1005A800D7EF02F06C9FD890693369C064F0656B2F
:1005B800666B676B64C067F0666B656B646B6451F0
:1005C8006A1365516B1366516C1367516D1368514B
:1005D800D8B4F1EF02F0F3EF02F0FBEF02F063BFE3
:1005E800FAEF02F0F8EF02F0FBEF02F06D8F6AC04D
:1005F80060F06BC061F06CC062F06DC063F0120017
:1006080080968896849E7C8E818680864DEC07F045
:1006180084EC07F0000E0001616F010E606F000EA0
:10062800636F060E626F000E656F0B0E646F000E2F
:10063800676F020E666F22EC06F017EC07F06DECA0
:1006480007F0F0EC06F087C08FF088C090F089C002
:1006580091F08AC092F08FC060F090C061F091C0B4
:1006680062F092C063F099EC03F060C06AF061C078
:100678006BF0A0EC04F08FC060F090C061F091C006
:1006880062F092C063F0000E0001646F000E656FA7
:10069800800E666F3F0E676F1DEC04F00001D8A056
:1006A80058EF03F05AEF03F077EF03F0000E606F96
:1006B800000E616FA00E626F400E636F8FC064F012
:1006C80090C065F091C066F092C067F01DEC04F030
:1006D8000001D8A072EF03F074EF03F077EF03F096
:1006E800809678EF03F0808691EC07F060C08BF07D
:1006F80061C08CF08CEC07F060C08DF061C08EF0AA
:1007080000018B4B8C2B8B07D8A08C078D4B8E2B25
:100718008D07D8A08E07000E636F010E626F05EC7F
:1007280005F025EF03F058EF00F00001623563355E
:10073800696F6951D8A4A3EF03F0A5EF03F0AFEFF9
:1007480003F0000E606F000E616F000E626F000E06
:10075800636F1CEF04F060C064F061C065F062C0B4
:1007680066F063C067F0200EBFEF03F0D8906733E0
:10077800663365336433E82EBAEF03F06451686F6B
:10078800628FFF0E6017FF0E6117FF0E6217000ED3
:100798006317960E695F69BFD6EF03F0D4EF03F0D5
:1007A800ECEF03F06951800A970FD8B0DEEF03F041
:1007B800E0EF03F0E2EF03F0A5EF03F0D890633326
:1007C800623361336033693FE2EF03F004EF04F012
:1007D8001F0E6965F2EF03F0F4EF03F0FCEF03F08E
:1007E800A5EF03F0D8906037613762376337690740
:1007F8006951D8A402EF04F004EF04F0F6EF03F017
:100808006851D8B40AEF04F00CEF04F014EF04F0C8
:10081800631F621F611F606D000E612362236323E3
:1008280060C060F061C061F062C062F063C063F0F4
:100838001200000E00016015686F000E6115696FE7
:10084800800E62156A6F7F0E63156B6F68516911B0
:100858006A116B11D8A433EF04F035EF04F03DEFC3
:1008680004F0000E606F000E616F000E626F000EE4
:10087800636F000E6415686F000E6515696F800E52
:1008880066156A6F7F0E67156B6F685169116A117B
:100898006B11D8A452EF04F054EF04F05CEF04F0AD
:1008A800000E646F000E656F000E666F000E676FB6
:1008B80063AF61EF04F063EF04F06CEF04F0606D78
:1008C800611FD8B0612B621FD8B0622B800E6357AE
:1008D80067AF71EF04F073EF04F07CEF04F0646D20
:1008E800651FD8B0652B661FD8B0662B800E67577A
:1008F800000E601B000E611B000E621B800E631B46
:10090800000E641B000E651B000E661B800E671B25
:100918006451605D65516159665162596751635907
:10092800D8B099EF04F09BEF04F09EEF04F0D89054
:100938009FEF04F0D880120000016AA1A6EF04F02E
:10094800A8EF04F0ABEF04F07F80ACEF04F07F90E9
:100958006AA3B1EF04F0B3EF04F0B6EF04F07F82BE
:10096800B7EF04F07F926AA5BCEF04F0BEEF04F085
:10097800C1EF04F07984C2EF04F079946AA7C7EF55
:1009880004F0C9EF04F0CCEF04F07E8CCDEF04F056
:100998007E9C6AA9D2EF04F0D4EF04F0D7EF04F0FC
:1009A8007988D8EF04F079986AABDDEF04F0DFEFCF
:1009B80004F0E2EF04F0798AE3EF04F0799A6AAD83
:1009C800E8EF04F0EAEF04F0EDEF04F07E80EEEFDC
:1009D80004F07E906AAFF3EF04F0F5EF04F0F8EF5F
:1009E80004F07A80F9EF04F07A906BA1FEEF04F03E
:1009F80000EF05F003EF05F07A8204EF05F07A9234
:100A080012005AEF05F020EE2CF010EE68F0170EE9
:100A1800DBCFE3FFE806FCE244C064F045C065F0C4
:100A2800D89064376537FE0E6425666FFF0E652122
:100A3800676F680E6625D96E000E6721DA6EDECF05
:100A480080F0DDCF81F0020E44184510D8A42FEFB6
:100A580005F031EF05F03FEF05F0030E4818491097
:100A6800D8A439EF05F03BEF05F03FEF05F0000E95
:100A7800816F1D0E806F464A472A4650805D475059
:100A88008159D8B04AEF05F04CEF05F056EF05F064
:100A9800000E616F010E606F8DEC06F0000E476E60
:100AA800010E466E00016207D8A06307000162517B
:100AB8006311D8A462EF05F064EF05F007EF05F0C5
:100AC8001200B8EF05F04A504B10D8A46EEF05F0AD
:100AD80070EF05F07BEF05F02350000193272450B9
:100AE8009423255095232650962396EF05F023C08E
:100AF80001F024C002F025C003F026C004F00F0E58
:100B0800056E000E066E000E076E000E086E58EC9D
:100B180006F00150000193270250942303509523B7
:100B28000450962396510DE1800E935D510E945911
:100B3800010E9559D8A0A3EF05F0A5EF05F0B3EF86
:100B480005F0000E936F000E946F000E956F000E67
:100B5800966F000E046E010E036EC4EC05F02306BA
:100B6800000E245A255A265A2350241025102610E0
:100B7800D8A4C1EF05F0C3EF05F067EF05F0120048
:100B880018EF06F020EE2CF010EE09F0170EDBCF70
:100B9800E3FFE806FCE244C005F045C006F0D89043
:100BA80005360636FE0E0524076EFF0E0620086E73
:100BB800090E0724D96E000E0820DA6EDECF21F068
:100BC800DDCF22F0020E44184510D8A4EEEF05F050
:100BD800F0EF05F0FEEF05F0030E48184910D8A411
:100BE800F8EF05F0FAEF05F0FEEF05F0000E226EC3
:100BF8001D0E216E464A472A4650215C475022580E
:100C0800D8B009EF06F00BEF06F015EF06F0000E6E
:100C1800026E010E016EBFEC06F0000E476E010E6B
:100C2800466E0306D8A0040603500410D8A41FEF8C
:100C380006F021EF06F0C6EF05F0120060C04AF09A
:100C480061C04BF062C046F063C047F064C044F036
:100C580065C045F0000166510308486E6751D8A089
:100C6800E82A0008496ED6501F0B4009D66ED68870
:100C7800D5884A504B10D8A444EF06F046EF06F04A
:100C880050EF06F0D650F00B0809D66E0B0ED46E56
:100C9800DC0ED36E56EF06F0F00ED616000ED46EAC
:100CA800000ED36ED58E1200000E096E000E0A6E6D
:100CB800000E0B6E000E0C6E01A065EF06F067EFDC
:100CC80006F06FEF06F00550092606500A22075075
:100CD8000B2208500C22D8900536063607360836FF
:100CE800D89004320332023201320150021003104C
:100CF8000410D8A482EF06F084EF06F060EF06F047
:100D080009C001F00AC002F00BC003F00CC004F0E7
:100D18001200B4EF06F0444A452A455009E10D0E89
:100D2800445CD8A09AEF06F09CEF06F0B1EF06F00D
:100D3800000E456E010E446E484A492A495009E1A1
:100D4800040E485CD8A0ABEF06F0ADEF06F0B1EFAB
:100D580006F0000E496E000E486E6007D8A06107C5
:100D6800000160516111D8A4BCEF06F0BEEF06F097
:100D78008FEF06F01200E6EF06F0444A452A455088
:100D880009E10D0E445CD8A0CCEF06F0CEEF06F0DA
:100D9800E3EF06F0000E456E010E446E484A492AFC
:100DA800495009E1040E485CD8A0DDEF06F0DFEFFA
:100DB80006F0E3EF06F0000E496E000E486E0106DD
:100DC800D8A0020601500210D8A4EDEF06F0EFEF0C
:100DD80006F0C1EF06F0120093C060F094C061F015
:100DE80095C062F096C063F0000E28EC02F060C077
:100DF8006EF061C06FF062C070F063C071F0000EF9
:100E08000001726F000E736F610E746F450E756F7F
:100E18005AEC00F06EC087F06FC088F070C089F09F
:100E280071C08AF01200879087928194869C81987D
:100E3800819A8690829082928F808F8289848E8C0C
:100E48008988898A8E808A808A827F907F92799425
:100E58007E9C7998799A7E907A907A921200BE0E4A
:100E6800F66E0E0EF76E000EF86E00EE2CF010EE19
:100E78001CF00900F5CFEEFFE550E150FAE1000162
:100E8800966B956B946B936B4C904C92000104EFAE
:100E980003F0868E0E01D251F80B0309D26FD3519D
:100EA800F80B0509D36FD083D089D1837AEC07F08A
:100EB8000E01D08F12001F001C001F001E001F0013
:100EC8001E001F001F001E001F001E001F00010043
:100ED800010081860E0192870F015899FC0E581760
:100EE800030E5F6F60946088608E1200F30E0E012F
:100EF800C617C691C751E00B1409C76FC68F1200F9
:100F08000E012B81F28AF28C2181298BF28E12003C
:100F180044C060F045C061F0120046C060F047C0B0
:040F280061F0120062
:020000040020DA
:10000000FF0FFF0FFF0FFF0FFF0FFF0FFF0FFF0F80
:020000040030CA
:0C000000AAFFFFFF9FFFFFFFFFFFFFFFB5
:00000001FF
