:0400000058EF00F0C5
:100008004882E1CF28F0E2CF29F0D9CF2AF0DACF21
:100018002BF00E0135A113EF00F015EF00F028EFDB
:1000280000F07CAE1AEF00F01EEF00F0276A272AD6
:100038001FEF00F0276A273227327C5027187F0BE2
:1000480027187C6E0E01359133AB2DEF00F02FEFA2
:1000580000F04EEF00F0010E236E000E246E000E2D
:10006800256E000E266E20EC10F046504710D8A4DE
:1000780040EF00F042EF00F048EF00F00B0ED46EB6
:10008800DB0ED36E4CEF00F0000ED46E000ED36E74
:100098000E01339B2BC0DAFF2AC0D9FF29C0E2FF2B
:0C00A80028C0E1FF48921100A9EF11F000
:100E0000003230323200313233004D4F4E00256413
:100E100000313000333000007DC093F07EC094F08C
:100E20007FC095F080C096F081C097F082C098F0A6
:100E300083C099F084C09AF000019ABF22EF07F0B6
:100E400025EF07F0010E26EF07F0000E9B6F9B5178
:100E5000D8B42DEF07F02FEF07F03FEF07F09A1F00
:100E6000991F981F971F961F951F941F936D000E33
:100E70009423952396239723982399239A23EEBFAF
:100E80004CEF07F0EE5106E1ED05D8B04AEF07F060
:100E90004CEF07F052EF07F0000E906F010E8F6FCE
:100EA00056EF07F0EDC08FF0EEC090F0EBC091F080
:100EB000ECC092F09B51D8B460EF07F062EF07F0FE
:100EC00079EF07F09107D8A092079B51D8A46BEF58
:100ED00007F06DEF07F073EF07F0000E8E6F2B0E2B
:100EE0008D6F77EF07F0000E8E6F2D0E8D6F8DC01A
:100EF0009BF0000E9D6F1F0E9C6F000E01011F6F77
:100F0000FFEF07F09C07D8A09D07000E9C25D96E27
:100F1000010E9D21DA6E93C060F094C061F095C01F
:100F200062F096C063F097C064F098C065F099C015
:100F300066F09AC067F00A0E686F000E696F000EC7
:100F40006A6F000E6B6F000E6C6F000E6D6F000EFF
:100F50006E6F000E6F6F26EC0BF060C085F061C005
:100F600086F062C087F063C088F064C089F065C015
:100F70008AF066C08BF067C08CF085C072F086C0C6
:100F800073F097EC13F000017251300FDF6E8F0792
:100F9000D8A090079107D8A0920793C060F094C0A2
:100FA00061F095C062F096C063F097C064F098C09D
:100FB00065F099C066F09AC067F00A0E686F000E7F
:100FC000696F000E6A6F000E6B6F000E6C6F000E83
:100FD0006D6F000E6E6F000E6F6F61EC0AF060C0F7
:100FE00093F061C094F062C095F063C096F064C065
:100FF00097F065C098F066C099F067C09AF000015C
:101000009DBF0BEF08F09D5108E19C05D8A00BEFA8
:1010100008F00DEF08F029EF08F0935194119511A5
:1010200096119711981199119A11D8A41AEF08F0F6
:101030001CEF08F082EF07F090BF29EF08F0905105
:1010400006E18F05D8B027EF08F029EF08F082EF0E
:1010500007F09B51D8B42FEF08F031EF08F03CEFC8
:1010600008F09C07D8A09D07000E9C25D96E010EA4
:101070009D21DA6E9BC0DFFF7BC070F07CC071F0F9
:10108000000E9C25726F010E9D21736F91C074F04C
:1010900092C075F02FEC11F0120080968896849E15
:1010A0007C8E8186808603EC14F068EC14F0000ED0
:1010B00000016D6F010E6C6F390E6E6F000E6F6F59
:1010C000000E706F000E716F110E726F000E736F55
:1010D000000E746F000E756F000E776F060E766F40
:1010E000000E796F010E786F000E7B6F0B0E7A6F1A
:1010F000070E7D6FE60E7C6F81EC0EF0B8EC13F0FE
:1011000045EC14F07FEC10F025EC14F0000167C002
:1011100069F068C06AF06B6B6C6B000E85EC09F0CF
:1011200069C0E7F06AC0E8F06BC0E9F06CC0EAF0B3
:10113000E7C060F0E8C061F0E9C062F0EAC063F0C7
:1011400081EC0CF060C06AF061C06BF057EC0FF0FE
:10115000E7C060F0E8C061F0E9C062F0EAC063F0A7
:10116000000E0001646F000E656F800E666F3F0E0B
:10117000676F05EC0DF00001D8A0C1EF08F0C3EFD8
:1011800008F0E0EF08F0000E606F000E616FA00E37
:10119000626F400E636FE7C064F0E8C065F0E9C0BD
:1011A00066F0EAC067F005EC0DF00001D8A0DBEFB7
:1011B00008F0DDEF08F0E0EF08F08096E1EF08F0CE
:1011C0008086E5C0D9FFE6C0DAFFDF50CF6FD06B75
:1011D000CFC0CBF0D0C0CCF0D4EC13F060C0CDF0D9
:1011E00061C0CEF035EC14F0E5C0D9FFE6C0DAFFFF
:1011F000DF500001CF6FD06BCFC0CBF0D0C0CCF0B0
:1012000015EC14F072C0CDF073C0CEF035EC14F0D4
:10121000E1C0D9FFE2C0DAFFDF500001CF6FD06B31
:10122000CFC0CBF0D0C0CCF052EC13F072C0CDF0F8
:1012300073C0CEF035EC14F0E3C0D9FFE4C0DAFFA0
:10124000DF500001CF6FD06BCFC0CBF0D0C0CCF05F
:1012500025EC14F067C0CDF068C0CEF035EC14F08A
:1012600020EED1F00F0EDE6AE806FDE20A0E000164
:10127000D16F0E0ED26F140ED36F0E0ED46F110EEF
:10128000D56F0E0ED66F010ED76F0E0ED86FE3C05E
:10129000D9FFE4C0DAFFDF50CF6FD06BCFC0D9F0F9
:1012A000D0C0DAF0E1C0D9FFE2C0DAFFDF50CF6F83
:1012B000D06BCFC0DBF0D0C0DCF0E5C0D9FFE6C01A
:1012C000DAFFDF50CF6FD06BCFC0DDF0D0C0DEF0E3
:1012D000060EDF6F0E0EE06FD10E646F000E656FAD
:1012E000BCEC0FF0090E0001D06F1E0ECF6FE40EA4
:1012F000E82EFED7CF2FFCD7D02FFAD700F008EC7E
:1013000013F084EF08F058EF00F00001716F000156
:101310007151D8B48EEF09F090EF09F0B2EF09F0F7
:101320006CBF97EF09F095EF09F0B2EF09F069C0D3
:101330006DF06AC06EF06BC06FF06CC070F06D1F26
:101340006E1F6F1F701F6D2B000E6E236F23702397
:101350006DC073F06EC074F06FC075F070C076F041
:10136000BAEF09F069C073F06AC074F06BC075F031
:101370006CC076F069516A116B116C11D8A4C3EF7F
:1013800009F0C5EF09F0CFEF09F0000E696F000E0C
:101390006A6F000E6B6F000E6C6F60EF0AF0960EB6
:1013A000726FD9EF09F0722BD8907633753374339E
:1013B0007333000E73156D6F000E74156E6F000E93
:1013C00075156F6FFE0E7615706F6D516E116F1182
:1013D0007011D8A4EEEF09F0F0EF09F0D3EF09F0A7
:1013E000FEEF09F0722B010E7327000E7423752394
:1013F0007623D8907633753374337333000E7315B8
:101400006D6F000E74156E6F000E75156F6FFF0E09
:101410007615706F6D516E116F117011D8A413EFA6
:101420000AF015EF0AF0F2EF09F01DEF0AF072076B
:10143000D890733774377537763775BF22EF0AF057
:1014400024EF0AF02CEF0AF0020E72612AEF0AF084
:101450002CEF0AF017EF0AF072B131EF0AF033EF18
:101460000AF034EF0AF0759FD890723372C06DF0B5
:101470006E6B6F6B706B6DC070F06F6B6E6B6D6BC6
:101480006D5173136E5174136F5175137051761340
:101490007151D8B44EEF0AF050EF0AF058EF0AF04D
:1014A0006CBF57EF0AF055EF0AF058EF0AF0768F4D
:1014B00073C069F074C06AF075C06BF076C06CF0F0
:1014C0001200000E0001716F6FBF6BEF0AF069EF41
:1014D0000AF07DEF0AF06F1F6E1F6D1F6C1F6B1FF0
:1014E0006A1F691F686D000E69236A236B236C23D2
:1014F0006D236E236F23010E716F67BF84EF0AF0B7
:1015000082EF0AF096EF0AF0671F661F651F641FDF
:10151000631F621F611F606D000E612362236323DE
:101520006423652366236723010E711B20EE72F08E
:10153000070EDE6AE806FDE2685169116A116B1157
:101540006C116D116E116F11D8B4A9EF0AF0ABEFE9
:101550000AF0FDEF0AF0010E706FB9EF0AF0D890B3
:10156000683769376A376B376C376D376E376F3767
:10157000702B6FAFBEEF0AF0C0EF0AF0AFEF0AF0CA
:10158000D89072377337743775377637773778373F
:1015900079376851605D695161596A5162596B517F
:1015A00063596C5164596D5165596E5166596F514B
:1015B0006759D8A0DEEF0AF0E0EF0AF0F1EF0AF089
:1015C0006851605F6951615B6A51625B6B51635B3B
:1015D0006C51645B6D51655B6E51665B6F51675B0F
:1015E0007281D8906F336E336D336C336B336A33E3
:1015F00069336833702FC0EF0AF07151D8B403EF2C
:101600000BF005EF0BF015EF0BF0791F781F771F2C
:10161000761F751F741F731F726D000E7323742362
:101620007523762377237823792372C060F073C003
:1016300061F074C062F075C063F076C064F077C08A
:1016400065F078C066F079C067F01200000E000106
:10165000716F67BF30EF0BF02EEF0BF042EF0BF026
:10166000671F661F651F641F631F621F611F606D18
:10167000000E6123622363236423652366236723AB
:10168000010E716F6FBF49EF0BF047EF0BF059EF91
:101690000BF06F1F6E1F6D1F6C1F6B1F6A1F691F82
:1016A000686D000E69236A236B236C236D236E2300
:1016B0006F23685169116A116B116C116D116E11F4
:1016C0006F11D8B466EF0BF068EF0BF0B0EF0BF0D2
:1016D000010E706F76EF0BF0D890683769376A3774
:1016E0006B376C376D376E376F37702B6FAF7BEFA3
:1016F0000BF07DEF0BF06CEF0BF06851605D695102
:1017000061596A5162596B5163596C5164596D51F9
:1017100065596E5166596F516759D8A092EF0BF019
:1017200094EF0BF0A4EF0BF06851605F6951615BBF
:101730006A51625B6B51635B6C51645B6D51655BBD
:101740006E51665B6F51675BD8906F336E336D334C
:101750006C336B336A3369336833702F7DEF0BF072
:101760007151D8B4B6EF0BF0B8EF0BF0C8EF0BF037
:10177000671F661F651F641F631F621F611F606D07
:10178000000E61236223632364236523662367239A
:1017900060C060F061C061F062C062F063C063F07D
:1017A00064C064F065C065F066C066F067C067F04D
:1017B0001200A0C0D9FFA1C0DAFFDECFF6FFDDCF57
:1017C000F7FF0800F550250AD8A4E9EF0BF0EBEF7E
:1017D0000BF06BEF0CF0A0C0D9FFA1C0DAFFDE2A3E
:1017E000000EDD22000E0001EC6F000EEB6FEBC06F
:1017F000EFF0ED69EE69A0C0D9FFA1C0DAFFDECF3E
:10180000AEF0DDCFAFF0AEC0F6FFAFC0F7FF08001F
:10181000F550640AD8B40FEF0CF011EF0CF01FEF85
:101820000CF0AEC0F6FFAFC0F7FF0800F550690A34
:10183000D8A41DEF0CF01FEF0CF062EF0CF0A2C06B
:10184000D9FFA3C0DAFFDFCFA4F0020EDE26DFCF80
:10185000A5F0000EDD22A4C0D9FFA5C0DAFFDECFBF
:10186000A6F0DDCFA7F0000EA7BFFF0EA86FA96FEF
:10187000AA6FAB6FAC6FAD6F010EAE25A46F000EFB
:10188000AF21A56FA0C0D9FFA1C0DAFFA4C0DEFFC1
:10189000A5C0DDFF9EC07BF09FC07CF0A6C07DF0A0
:1018A000A7C07EF0A8C07FF0A9C080F0AAC081F0D8
:1018B000ABC082F0ACC083F0ADC084F00CEC07F09C
:1018C00080EF0CF0A0C0D9FFA1C0DAFFDE2A000E25
:1018D000DD2280EF0CF0A0C0D9FFA1C0DAFFDECF7F
:1018E000F6FFDDCFF7FF0800F5500001606F616B78
:1018F0009EC062F09FC063F0F1EC0EF062EF0CF05E
:101900001200000162356335696F6951D8A48BEF0D
:101910000CF08DEF0CF097EF0CF0000E606F000EE6
:10192000616F000E626F000E636F04EF0DF060C018
:1019300064F061C065F062C066F063C067F0200EBD
:10194000A7EF0CF0D8906733663365336433E82E25
:10195000A2EF0CF06451686F628FFF0E6017FF0EEC
:101960006117FF0E6217000E6317960E695F69BF5D
:10197000BEEF0CF0BCEF0CF0D4EF0CF06951800A14
:10198000970FD8B0C6EF0CF0C8EF0CF0CAEF0CF010
:101990008DEF0CF0D8906333623361336033693F6D
:1019A000CAEF0CF0ECEF0CF01F0E6965DAEF0CF0EB
:1019B000DCEF0CF0E4EF0CF08DEF0CF0D89060371A
:1019C00061376237633769076951D8A4EAEF0CF0D1
:1019D000ECEF0CF0DEEF0CF06851D8B4F2EF0CF045
:1019E000F4EF0CF0FCEF0CF0631F621F611F606DE1
:1019F000000E61236223632360C060F061C061F068
:101A000062C062F063C063F01200000E0001601556
:101A1000686F000E6115696F800E62156A6F7F0E28
:101A200063156B6F685169116A116B11D8A41BEFB4
:101A30000DF01DEF0DF025EF0DF0000E606F000EA4
:101A4000616F000E626F000E636F000E6415686FA9
:101A5000000E6515696F800E66156A6F7F0E67153B
:101A60006B6F685169116A116B11D8A43AEF0DF0D0
:101A70003CEF0DF044EF0DF0000E646F000E656F4B
:101A8000000E666F000E676F63AF49EF0DF04BEF0E
:101A90000DF054EF0DF0606D611FD8B0612B621F27
:101AA000D8B0622B800E635767AF59EF0DF05BEF34
:101AB0000DF064EF0DF0646D651FD8B0652B661FE7
:101AC000D8B0662B800E6757000E601B000E611B9E
:101AD000000E621B800E631B000E641B000E651B54
:101AE000000E661B800E671B6451605D6551615975
:101AF0006651625967516359D8B081EF0DF083EF99
:101B00000DF086EF0DF0D89087EF0DF0D880120021
:101B10000001636F00016351D8A491EF0DF093EFC2
:101B20000DF09AEF0DF0000E616F800EEDEC13F0EA
:101B300009EF0EF06305D8A4A0EF0DF0A2EF0DF0B1
:101B4000A9EF0DF0000E616F860EEDEC13F009EFBA
:101B50000EF0020E6319D8A4B0EF0DF0B2EF0DF045
:101B6000B9EF0DF0000E616F890EEDEC13F009EF87
:101B70000EF0030E6319D8A4C0EF0DF0C2EF0DF004
:101B8000C9EF0DF0000E616F8C0EEDEC13F009EF54
:101B90000EF0040E6319D8A4D0EF0DF0D2EF0DF0C3
:101BA000D9EF0DF0000E616FC00EEDEC13F009EFF0
:101BB0000EF0050E6319D8A4E0EF0DF0E2EF0DF082
:101BC000E9EF0DF0000E616FC30EEDEC13F009EFBD
:101BD0000EF0060E6319D8A4F0EF0DF0F2EF0DF041
:101BE000F9EF0DF0000E616FC60EEDEC13F009EF8A
:101BF0000EF0070E6319D8A400EF0EF002EF0EF0FE
:101C000009EF0EF0000E616FCD0EEDEC13F009EF51
:101C10000EF0120077EF0EF021EE20F010EE09F03A
:101C2000170EDBCFE3FFE806FCE240C005F041C041
:101C300006F0D89005360636FE0E0524076EFF0E18
:101C40000620086E090E0724D96E000E0820DA6EF1
:101C5000DECF21F0DDCF22F0020E40184110D8A4D3
:101C600034EF0EF036EF0EF04DEF0EF01C0E3E246A
:101C7000056EF80E3F20066E030E0516000E0616C2
:101C800005500610D8A447EF0EF049EF0EF04DEFC7
:101C90000EF0000E226E1D0E216E424A432A444A67
:101CA000452A080E44184510D8A459EF0EF05BEFF2
:101CB0000EF05FEF0EF0000E456E010E446E4250C6
:101CC000215C43502258D8B068EF0EF06AEF0EF056
:101CD00074EF0EF0000E026E010E016E75EC13F043
:101CE000000E436E010E426E0306D8A00406035098
:101CF0000410D8A47EEF0EF080EF0EF00CEF0EF083
:101D000012006CC046F06DC047F072C060F073C046
:101D100061F074C062F075C063F0100E0001646F72
:101D20000E0E656F000E666F000E676FE2EC11F02D
:101D300060C07EF061C07FF062C080F063C081F05F
:101D40006EC060F06FC061F070C062F071C063F08F
:101D50003C0E0001646F000E656F000E666F000E92
:101D6000676FE2EC11F0000160517E25F06F615168
:101D70007F21F16F62518021F26F63518121F36FF6
:101D800076C042F077C043F078C044F079C045F0A7
:101D90007AC040F07BC041F07CC03EF07DC03FF097
:101DA000D6501F0B4009D66ED688D58846504710AE
:101DB000D8A4DDEF0EF0DFEF0EF0E9EF0EF0D65015
:101DC000F00B0809D66E0B0ED46EDB0ED36EEFEF60
:101DD0000EF0F00ED616000ED46E000ED36ED58E19
:101DE0001200000162516311D8B4F9EF0EF0FBEF5D
:101DF0000EF004EF0FF062516311D8A402EF0FF060
:101E000004EF0FF009EF0FF060517BEC14F056EF88
:101E10000FF020EE09F06251D9266351DA22DE502C
:101E2000DE10D8B416EF0FF018EF0FF033EF0FF00D
:101E300020EE09F06251D9266351DA2210EE03F048
:101E40006251E1266351E222DE50E65CE650800AF0
:101E5000686FDE50800A6859D8B031EF0FF033EF69
:101E60000FF056EF0FF020EE03F06251D9266351C8
:101E7000DA22DECF64F0DDCF65F062C0D9FF63C047
:101E8000DAFFDECF66F0DDCF67F064516625D96EEC
:101E900065516721DA6E60C0DFFF20EE03F062510A
:101EA000D9266351DA22DE2A000EDD22120000015B
:101EB0006AA15DEF0FF05FEF0FF062EF0FF07F8030
:101EC00063EF0FF07F906AA368EF0FF06AEF0FF0F7
:101ED0006DEF0FF07F826EEF0FF07F926AA573EFC8
:101EE0000FF075EF0FF078EF0FF0798479EF0FF0C6
:101EF00079946AA77EEF0FF080EF0FF083EF0FF079
:101F00007E8C84EF0FF07E9C6AA989EF0FF08BEF37
:101F10000FF08EEF0FF079888FEF0FF079986AABA2
:101F200094EF0FF096EF0FF099EF0FF0798A9AEF98
:101F30000FF0799A6AAD9FEF0FF0A1EF0FF0A4EFC9
:101F40000FF07E80A5EF0FF07E906AAFAAEF0FF042
:101F5000ACEF0FF0AFEF0FF07A80B0EF0FF07A90A8
:101F60006BA1B5EF0FF0B7EF0FF0BAEF0FF07A8279
:101F7000BBEF0FF07A921200000E0001696F000EA5
:101F8000686F685188EC0DF0EDEF0FF0010E000165
:101F9000616FD8906835D96E6935DA6E6451D9268B
:101FA0006551DA22DFCF66F0010EDE26DFCF67F063
:101FB000000EDD2266C0F6FF67C0F7FF000EF86E68
:101FC0000D0EF76403D00800F55005D0F6CFE1FF01
:101FD000F7CFE2FFE750EDEC13F0D8900001683541
:101FE000D96E6935DA6E6451D9266551DA22DECFB1
:101FF000F6FFDECFF7FF0D0EF76403D00800F550B3
:1020000005D0F6CFE1FFF7CFE2FFE7500009D8A4F3
:102010000CEF10F00EEF10F0C6EF0FF00001684B60
:10202000692B69BF1DEF10F0695109E1080E685D69
:10203000D8A01DEF10F01FEF10F0C1EF0FF012004D
:1020400073EF10F046504710D8A429EF10F02BEF93
:1020500010F036EF10F023500001F0272450F12348
:102060002550F2232650F32351EF10F023C001F046
:1020700024C002F025C003F026C004F00F0E056E48
:10208000000E066E000E076E000E086E4EEC12F08B
:1020900001500001F0270250F1230350F2230450B5
:1020A000F323F3510DE1800EF05D510EF159010E55
:1020B000F259D8A05EEF10F060EF10F06EEF10F064
:1020C000000EF06F000EF16F000EF26F000EF36F56
:1020D000000E046E010E036E0AEC0EF02306000ED5
:1020E000245A255A265A2350241025102610D8A4E5
:1020F0007CEF10F07EEF10F022EF10F012008394CE
:10210000839C82968294859685927B9C7B947A961A
:102110007A947D967D92050E0001646FDF0E636FE9
:10212000BB0EE82EFED7632FFCD7642FFAD700D062
:10213000030E18EC12F0D50EE82EFED700F0020EBA
:1021400018EC12F0D50EE82EFED700F0000E0001BC
:10215000616F280EEDEC13F0D50EE82EFED700F0DF
:10216000000E0001616F280EEDEC13F0D50EE82E85
:10217000FED700F0000E0001616F010EEDEC13F0D0
:102180002A0E0001636F8D0EE82EFED7632FFCD759
:1021900000D0000E0001616F060EEDEC13F0000E92
:1021A0000001616F0E0EEDEC13F0000E0001616F87
:1021B0000C0EEDEC13F01200000E0001686F000E23
:1021C000696F000E6A6F000E6B6F645165116611C6
:1021D0006711D8B4EEEF10F0F0EF10F026EF11F029
:1021E000010E6C6FFAEF10F0D890643765376637E0
:1021F00067376C2B67AFFFEF10F001EF11F0F4EFD2
:1022000010F0D890683769376A376B376451605D72
:10221000655161596651625967516359D8A013EFEE
:1022200011F015EF11F01EEF11F06451605F655170
:10223000615B6651625B6751635B6881D89067330D
:102240006633653364336C2F01EF11F068C060F0C2
:1022500069C061F06AC062F06BC063F012000001F7
:1022600075BF35EF11F037EF11F03DEF11F074C08D
:1022700079F075C07AF041EF11F0000E7A6F000E20
:10228000796F000E786F000E776F54EF11F0000E2B
:10229000616F200E606F70C062F071C063F0F1EC8E
:1022A0000EF00001774B782B7951775D7851800AD9
:1022B000766F7A51800A7659D8A061EF11F063EFFA
:1022C00011F047EF11F072C069F073C06AF070C08E
:1022D0006BF071C06CF02EEC13F01200000E0001D8
:1022E000666F000E656F62516311D8B47AEF11F01A
:1022F0007CEF11F0A4EF11F0010E646F84EF11F088
:10230000D89062376337642B63AF89EF11F08BEF9E
:1023100011F080EF11F0D890653766376251605D3B
:1023200063516159D8A097EF11F099EF11F09EEF2A
:1023300011F06251605F6351615B6581D8906333D6
:102340006233642F8BEF11F065C060F066C061F0FE
:102350001200A40EF66E280EF76E000EF86E01EE57
:1023600020F010EE18F00900F5CFEEFFE550E15037
:10237000FAE1EE0EF66E280EF76E000EF86E00EE25
:102380003EF010EE08F00900F5CFEEFFE550E15009
:10239000FAE101EE00F0200EEE6AE806FDE1000130
:1023A000EF6BEE6BED6BEC6BEB6B00EE2CF0120E4B
:1023B000EE6AE806FDE148904892000EF86E0001D2
:1023C0004DEF08F0000E0001686F000E696F000EFF
:1023D0006A6F000E6B6F60A1F0EF11F0F2EF11F079
:1023E000FAEF11F0645168276551692366516A2339
:1023F00067516B23D8906437653766376737D89055
:102400006333623361336033605161116211631170
:10241000D8A40DEF12F00FEF12F0EBEF11F068C03F
:1024200060F069C061F06AC062F06BC063F01200D6
:102430000001606F000160A120EF12F022EF12F0A6
:1024400025EF12F07A8626EF12F07A9660A32BEF32
:1024500012F02DEF12F030EF12F07A8431EF12F01B
:102460007A9460A536EF12F038EF12F03BEF12F0DD
:102470007D863CEF12F07D9660A741EF12F043EFAE
:1024800012F046EF12F07D8247EF12F07D9270EC71
:1024900014F01A0EE82EFED700D01200000E096EBE
:1024A000000E0A6E000E0B6E000E0C6E01A05BEFAC
:1024B00012F05DEF12F065EF12F00550092606509C
:1024C0000A2207500B2208500C22D89005360636F7
:1024D00007360836D89004320332023201320150F6
:1024E000021003100410D8A478EF12F07AEF12F063
:1024F00056EF12F009C001F00AC002F00BC003F061
:102500000CC004F0120000016F517011D8B48BEFB1
:1025100012F08DEF12F0B1EF12F0010E716F95EF26
:1025200012F0D8906F377037712B70AF9AEF12F0AE
:102530009CEF12F091EF12F06F516D5D70516E597A
:10254000D8A0A5EF12F0A7EF12F0ABEF12F06F5189
:102550006D5F70516E5BD89070336F33712F9CEF4D
:1025600012F06DC06DF06EC06EF01200BC0E000176
:10257000BE6F000EBF6FB8C0C0F0B9C0C1F0000E92
:10258000C46F000EC36F000ECA6F000EC96FC00E7D
:10259000B06F000EB16FBAC0B2F0BBC0B3F0BE0EE8
:1025A000B46F000EB56FDFEC12F00001C351B82517
:1025B000D96EC451B921DA6E000EDF6E1200B2C0BE
:1025C000B6F0B3C0B7F0F4EF12F0B0C09EF0B1C0F7
:1025D0009FF0B60E0001A06F000EA16FB4C0A2F074
:1025E000B5C0A3F0D9EC0BF0B6C0F6FFB7C0F7FF4B
:1025F0000800F5500009D8A400EF13F002EF13F023
:10260000E5EF12F0000E0001B16F000EB06F120086
:10261000D50EE82EFED700F0000E0001616F010E0E
:10262000EDEC13F02A0E0001636F8D0EE82EFED73D
:10263000632FFCD700D0000E0001616F060EEDEC99
:1026400013F0000E0001616F0E0EEDEC13F0000EA2
:102650000001616F0C0EEDEC13F01200000E000192
:102660006F6F000E6E6F41EF13F06DC060F0616B25
:102670006BC062F06CC063F0F1EC0EF000016E4BC9
:102680006F2B6E516925D96E6F516A21DA6EDF505A
:102690006D6F6D51D8A44FEF13F051EF13F035EF7C
:1026A00013F012003C0E0001646F000E656F000E07
:1026B000666F000E676FF0C060F0F1C061F0F2C0AD
:1026C00062F0F3C063F0DCEC10F060C06DF061C04C
:1026D0006EF0000E0001706F3C0E6F6F83EC12F015
:1026E0006DC072F06EC073F012008DEF13F0404AAF
:1026F000412A415009E10D0E405CD8A082EF13F051
:1027000084EF13F08AEF13F0000E416E010E406E5D
:102710003E4A3F2A0106D8A0020601500210D8A462
:1027200094EF13F096EF13F077EF13F0120000011F
:1027300073BFA5EF13F0735106E17205D8B0A3EF94
:1027400013F0A5EF13F0B3EF13F072C074F073C081
:1027500075F0741F751F744B752B74C072F075C0C3
:1027600073F0B7EF13F072C072F073C073F0120021
:10277000879087928194869C8198819A8690829096
:1027800082928F808F8289848E8C8988898A8E80BC
:102790008A808A827F907F9279947E9C7998799AB8
:1027A0007E907A907A921200608060B0DAEF13F037
:1027B000DCEF13F0D5EF13F064CF62F00001636B30
:1027C0006251FF08626F6351D8A0E82A0008636F66
:1027D00062C060F063C061F012000001626F00012E
:1027E00061B102D07B9C01D07B8C000162390F0B60
:1027F00018EC12F00001625118EC12F0A00E00D09B
:10280000E82EFDD71200868E0E01D251F80B030977
:10281000D26FD351F80B0509D36FD083D089D18300
:102820005EEC14F00E01D08F1200F0C06DF0F1C01C
:102830006EF0000E0001706F3C0E6F6F83EC12F0B3
:102840006DC072F06EC073F01200F0C060F0F1C0A5
:1028500061F00E0E0001636F100E626F6EEC11F0EE
:1028600060C067F061C068F01200CBC0B8F0CCC0A7
:10287000B9F00E0E0001BA6F0E0EBB6FCDC0BCF0EA
:10288000CEC0BDF0B6EC12F0120081860E01928728
:102890000F015899FC0E5817030E5F6F6094608803
:1028A000608E12001F001C001F001E001F001E0073
:1028B0001F001F001E001F001E001F00F30E0E0150
:1028C000C617C691C751E00B1409C76FC68F120017
:1028D0000E012B81F28AF28C2181298BF28E12005B
:1028E0007B840A0EE82EFED700D07B941200E4070A
:0828F0000100010001001200CB
:020000040020DA
:10000000FF0FFF0FFF0FFF0FFF0FFF0FFF0FFF0F80
:020000040030CA
:0C000000AAFFFFFF9FFFFFFFFFFFFFFFB5
:00000001FF
