:0400000041EF00F0DC
:100008005482D9CF04F0DACF05F00E0133AB0FEFED
:1000180000F011EF00F03BEF00F080A616EF00F0C3
:100028001AEF00F0036A032A1BEF00F0036A034685
:100038000346034680500318F70B0318806EC0EC84
:100048000BF00001D251D311D8A42DEF00F02FEFFF
:1000580000F035EF00F00B0ED46EDB0ED36E39EFE7
:1000680000F0000ED46E000ED36E0E01339B05C057
:0E007800DAFF04C0D9FF54921100DFEF0FF041
:100E000000253031750025303275002530337500EE
:100E10005745440054554500465249004D4F4E0039
:100E200053554E0053415400544855002575000059
:100E300043C0D9FF44C0DAFFDECFF6FFDDCFF7FFB6
:100E4000000EF86E0800F550250AD8A42AEF07F026
:100E50002CEF07F069EF08F043C0D9FF44C0DAFF78
:100E6000DE2A000EDD22000E0001E56F000EE46FA9
:100E7000E4C051F0E669E769000E696F000E686F23
:100E80006EEF07F0518243C0D9FF44C0DAFFDE2A7B
:100E9000000EDD226EEF07F0000E696F010E686F25
:100EA0006EEF07F043C0D9FF44C0DAFFDECFF6FF94
:100EB000DDCFF7FF000EF86E0800F550476E486A68
:100EC0004850000AD8B467EF07F04CEF07F04750DE
:100ED000300AD8B442EF07F04CEF07F068516911BF
:100EE000D8B475EF07F077EF07F052EF07F043C083
:100EF000D9FF44C0DAFFDECFF6FFDDCFF7FF000EEB
:100F0000F86E0800F5502A0AD8A489EF07F08BEF95
:100F100007F0B4EF07F043C0D9FF44C0DAFFDE2A80
:100F2000000EDD2245C0D9FF46C0DAFFDFCF47F013
:100F3000020EDE26DFCF48F0000EDD2247C0D9FFCB
:100F400048C0DAFFDECFE4F0DDCFE5F0E5BFADEF7E
:100F500007F0ABEF07F0E9EF07F05180E46DE51F14
:100F6000D8B0E52BE9EF07F043C0D9FF44C0DAFF62
:100F7000DECF0CF0DDCF0DF011EC0BF00CC0E4F087
:100F80000DC0E5F0CBEF07F043C0D9FF44C0DAFF56
:100F9000DE2A000EDD2243C0D9FF44C0DAFFDECFD7
:100FA000F6FFDDCFF7FF000EF86E0800F5CF47F033
:100FB000D00E4724486E496AFF0E4922495009E184
:100FC0000A0E485CD8A0E7EF07F0E9EF07F0C4EF9E
:100FD00007F043C0D9FF44C0DAFFDECF6AF0DDCFAF
:100FE0006BF06AC0F6FF6BC0F7FF000EF86E0800EA
:100FF000F550750AD8A4FFEF07F001EF08F060EF95
:1010000008F045C0D9FF46C0DAFFDFCF47F0020E37
:10101000DE26DFCF48F0000EDD2247C0D9FF48C0F2
:10102000DAFFDECF49F0DDCF4AF049C060F04AC0B8
:1010300061F00001626B636B646B656B666B676B81
:10104000010E6A25476E000E6B21486E43C0D9FF22
:1010500044C0DAFF47C0DEFF48C0DDFF48EF08F0BC
:1010600041C021F042C022F060C023F061C024F0F2
:1010700062C025F063C026F064C027F065C028F088
:1010800066C029F067C02AF080EC08F07FEF08F016
:101090006AC0F6FF6BC0F7FF000EF86E0800F5504F
:1010A000476E486A4850000AD8B459EF08F060EF1C
:1010B00008F04750750AD8B430EF08F060EF08F038
:1010C00043C0D9FF44C0DAFFDE2A000EDD227FEFE5
:1010D00008F043C0D9FF44C0DAFFDECFF6FFDDCF12
:1010E000F7FF000EF86E0800F550066E076A41C063
:1010F00008F042C009F042EC0EF060EF08F0120078
:101100000001E7BF86EF08F088EF08F089EF08F0EC
:101110005192E7BF96EF08F0E75106E1E605D8B037
:1011200094EF08F096EF08F09CEF08F0000E346E94
:10113000010E336EA0EF08F0E6C033F0E7C034F0E4
:10114000E4C035F0E5C036F023C037F024C038F0F5
:1011500025C039F026C03AF027C03BF028C03CF04B
:1011600029C03DF02AC03EF0000E406E1F0E3F6EBB
:10117000000E01011F6F33EF09F03F06D8A04006B3
:10118000000E3F24D96E010E4020DA6E37C006F003
:1011900038C007F039C008F03AC009F03BC00AF087
:1011A0003CC00BF03DC00CF03EC00DF00A0E0E6EC0
:1011B000000E0F6E000E106E000E116E000E126EFD
:1011C000000E136E000E146E000E156EDAEC0DF0AC
:1011D00006C02BF007C02CF008C02DF009C02EF07F
:1011E0000AC02FF00BC030F00CC031F00DC032F04F
:1011F0002B50300FDF6E3306D8A034063506D8A04A
:10120000360637C006F038C007F039C008F03AC0DB
:1012100009F03BC00AF03CC00BF03DC00CF03EC0F2
:101220000DF00A0E0E6E000E0F6E000E106E000E08
:10123000116E000E126E000E136E000E146E000E74
:10124000156EF3EC0CF006C037F007C038F008C09C
:1012500039F009C03AF00AC03BF00BC03CF00CC0BA
:101260003DF00DC03EF03F504010D8B43AEF09F0C9
:101270003CEF09F06CEF09F03750381039103A1094
:101280003B103C103D103E10D8A449EF09F04BEF45
:1012900009F0BDEF08F034BE58EF09F0345006E114
:1012A0003304D8B056EF09F058EF09F0BDEF08F05D
:1012B00036BE63EF09F0365008E13504D8A063EF7D
:1012C00009F065EF09F06CEF09F051B26AEF09F02F
:1012D0006CEF09F0BDEF08F021C016F022C017F046
:1012E000000E3F24186E010E4020196E35C01AF012
:1012F00036C01BF003EC0FF0120085EC10F062EC2E
:1013000011F058EC0FF04EEC11F0CAC08BF0CBC0CE
:101310008CF0CCC08DF0CDC08EF0C9EC10F0A60ED4
:101320000001856F000E866F6DEC11F006C087F02E
:1013300007C088F0000E00018A6F020E896FA7ECCB
:101340000EF0A80E0001856F000E866F77EC11F08D
:1013500006C087F007C088F0000E00018A6F020EF9
:10136000896FA7EC0EF0AA0E0001856F000E866F44
:101370007CEC11F006C087F007C088F0000E000179
:101380008A6F020E896FA7EC0EF0AC0E0001856F1C
:10139000000E866F81EC11F006C087F007C088F060
:1013A000000E00018A6F020E896FA7EC0EF0AE0EE0
:1013B0000001856F000E866F72EC11F0010E06249D
:1013C0000001876F000E0720886F000E8A6F020EE3
:1013D000896FA7EC0EF08F0E0001856F000E866FEF
:1013E00068EC11F006C087F007C088F0000E00011D
:1013F0008A6F040E896FA7EC0EF0930E0001856FC3
:10140000000E866FE9EC10F006C087F007C088F088
:10141000000E00018A6F030E896FA7EC0EF020EE1C
:1014200096F00F0EDE6AE806FDE26BEC0DF006C0EA
:1014300096F007C097F0AC0E0001986F000E996F00
:10144000AE0E9A6F000E9B6F8F0E9C6F000E9D6FFD
:10145000AA0E9E6F000E9F6FA80EA06F000EA16FC8
:10146000A60EA26F000EA36F930EA46F000EA56FC1
:10147000960E0B6E000E0C6E4EEC0AF0090E4E6EC0
:101480001E0E4D6EE40EE82EFED74D2EFCD74E2ECE
:10149000FAD700D08DEF09F041EF00F0000E106E8A
:1014A000000E0F6E0FC009F010C00AF06CEC0CF0CB
:1014B00080EF0AF0010E076ED8900F34D96E103409
:1014C000DA6E0B50D9260C50DA22DFCF0DF0010E68
:1014D000DE26DFCF0EF0000EDD220DC0F6FF0EC0BF
:1014E000F7FF000EF86E0D0EF76403D00800F550FC
:1014F00005D0F6CFE9FFF7CFEAFFEF503CEC11F053
:10150000D8900F34D96E1034DA6E0B50D9260C50A7
:10151000DA22DECF0DF0DDCF0EF00DC0F6FF0EC0EB
:10152000F7FF000EF86E0D0EF76403D00800F550BB
:1015300005D0F6CFE9FFF7CFEAFFEF500009D8A4B6
:10154000A4EF0AF0A6EF0AF05AEF0AF0000E076EB9
:10155000C20E3CEC11F0010E076E3A0E3CEC11F09D
:10156000000E076EC50E3CEC11F0010E076E2E0E3C
:101570003CEC11F0000E076EC80E3CEC11F0010EB1
:10158000076E200E3CEC11F0000E076EC90E3CEC0D
:1015900011F0010E076E200E3CEC11F0000E076EEC
:1015A000CA0E3CEC11F0010E076E200E3CEC11F05F
:1015B000000E076ECB0E3CEC11F0010E076E200EF4
:1015C0003CEC11F0000E076ECC0E3CEC11F0010E5D
:1015D000076E200E3CEC11F0000E076E880E3CECFE
:1015E00011F0010E076E2F0E3CEC11F0000E076E8D
:1015F0008B0E3CEC11F0010E076E2F0E3CEC11F03F
:101600000F4A102A10BE0EEF0BF0105009E1080E21
:101610000F5CD8A00EEF0BF010EF0BF052EF0AF0BA
:101620001200000E146E000E136E000E126E000EED
:10163000116E1DEF0BF00C4A0D2A0CC0F6FF0DC009
:10164000F7FF000EF86E0800F550200AD8B42BEF13
:101650000BF02DEF0BF01BEF0BF00CC0F6FF0DC0E5
:10166000F7FF000EF86E0800F5CF0EF0F70E0E240F
:101670000F6E106AFF0E1022105009E1050E0F5C6C
:10168000D8A045EF0BF047EF0BF01BEF0BF051EF3D
:101690000BF0000E126E010E116E0C4A0D2A8AEF2D
:1016A0000BF00CC0F6FF0DC0F7FF000EF86E08003F
:1016B000F5500E6E0F6A0F50000AD8B462EF0BF0AF
:1016C0008AEF0BF00E502B0AD8B44DEF0BF0060A40
:1016D000D8B449EF0BF08AEF0BF013C006F014C03A
:1016E00007F0000E096E0A0E086E17EC11F00CC020
:1016F000F6FF0DC0F7FF000EF86E0800F550065E0D
:10170000000E075A300E0624136E000E0720146ECA
:101710004DEF0BF00CC0F6FF0DC0F7FF000EF86E9A
:101720000800F5CF0EF0D00E0E240F6E106AFF0EDB
:101730001022105009E10A0E0F5CD8A0A2EF0BF0A6
:10174000A4EF0BF06DEF0BF011501210D8A4ABEF1B
:101750000BF0ADEF0BF0BBEF0BF013C00EF014C0AD
:101760000FF00E1E0F1E0E4A0F2A0EC00CF00FC0F7
:101770000DF0BFEF0BF013C00CF014C00DF0120011
:101780000001D251D311D8A4C8EF0BF0CAEF0BF06F
:10179000CEEF0BF0EC4BED2BD2EF0BF00F0EEA2758
:1017A000000EEB233C0EEC19ED11D8A4DAEF0BF090
:1017B000DCEF0BF0E2EF0BF0000EED6F000EEC6FC4
:1017C000EA4BEB2B3C0EEA19EB11D8A4EAEF0BF035
:1017D000ECEF0BF0F2EF0BF0000EEB6F000EEA6F88
:1017E000E84BE92B180EE819E911D8A4FAEF0BF031
:1017F000FCEF0BF004EF0CF0000EE96F000EE86F49
:10180000D04BD12B524A532A070E52185310D8A44A
:101810000CEF0CF00EEF0CF012EF0CF0000E536E0C
:10182000000E526E4F045010D8A419EF0CF01BEFAD
:101830000CF03CEF0CF0030ECE15016E000ECF1530
:10184000026E01500210D8A428EF0CF02AEF0CF021
:101850003CEF0CF01E0ED019D111D8A432EF0CF0D1
:1018600034EF0CF05BEF0CF0000ED16F010ED06F77
:101870004F4A502A5BEF0CF0D8904F34D96E503459
:10188000DA6EB20ED926000EDA22DECF01F0DDCFFD
:1018900002F0010E0126000E0222D051011807E1CC
:1018A000D1510218D8A457EF0CF059EF0CF05BEFB0
:1018B0000CF034EF0CF00C0E4F185010D8A463EF5E
:1018C0000CF065EF0CF06BEF0CF0000E506E000E9C
:1018D0004F6ECE4BCF2B120009500A10D8A473EFD5
:1018E0000CF075EF0CF07CEF0CF0000E076E800E24
:1018F0003CEC11F0F2EF0CF009040A10D8A483EFCD
:101900000CF085EF0CF08CEF0CF0000E076E860EDD
:101910003CEC11F0F2EF0CF0020E09180A10D8A4FA
:1019200094EF0CF096EF0CF09DEF0CF0000E076EAC
:10193000890E3CEC11F0F2EF0CF0030E09180A10BE
:10194000D8A4A5EF0CF0A7EF0CF0AEEF0CF0000E52
:10195000076E8C0E3CEC11F0F2EF0CF0040E09183F
:101960000A10D8A4B6EF0CF0B8EF0CF0BFEF0CF0F3
:10197000000E076EC00E3CEC11F0F2EF0CF0050EFD
:1019800009180A10D8A4C7EF0CF0C9EF0CF0D0EF7B
:101990000CF0000E076EC30E3CEC11F0F2EF0CF0F1
:1019A000060E09180A10D8A4D8EF0CF0DAEF0CF0E4
:1019B000E1EF0CF0000E076EC60E3CEC11F0F2EFFA
:1019C0000CF0070E09180A10D8A4E9EF0CF0EBEFA1
:1019D0000CF0F2EF0CF0000E076ECD0E3CEC11F0A7
:1019E000F2EF0CF0120020EE16F0070EDE6AE806A9
:1019F000FDE20E500F1010101110121013101410E1
:101A00001510D8B406EF0DF008EF0DF05AEF0DF0F9
:101A1000010E1E6E16EF0DF0D8900E360F361036F2
:101A2000113612361336143615361E2A15AE1BEF34
:101A30000DF01DEF0DF00CEF0DF0D89016361736A7
:101A4000183619361A361B361C361D360E50065CF3
:101A50000F500758105008581150095812500A5882
:101A600013500B5814500C5815500D58D8A03BEF7C
:101A70000DF03DEF0DF04EEF0DF00E50065E0F50E5
:101A8000075A1050085A1150095A12500A5A135046
:101A90000B5A14500C5A15500D5A1680D890153206
:101AA000143213321232113210320F320E321E2E15
:101AB0001DEF0DF016C006F017C007F018C008F0B3
:101AC00019C009F01AC00AF01BC00BF01CC00CF0C2
:101AD0001DC00DF0120052505310D8A472EF0DF03B
:101AE00074EF0DF07AEF0DF01C0E066E0E0E076E01
:101AF000D9EF0DF052045310D8A481EF0DF083EF0D
:101B00000DF089EF0DF0140E066E0E0E076ED9EF74
:101B10000DF0020E52185310D8A491EF0DF093EF70
:101B20000DF099EF0DF0100E066E0E0E076ED9EF48
:101B30000DF0030E52185310D8A4A1EF0DF0A3EF2F
:101B40000DF0A9EF0DF0280E066E0E0E076ED9EF00
:101B50000DF0040E52185310D8A4B1EF0DF0B3EFEE
:101B60000DF0B9EF0DF0180E066E0E0E076ED9EFE0
:101B70000DF0050E52185310D8A4C1EF0DF0C3EFAD
:101B80000DF0C9EF0DF0240E066E0E0E076ED9EFA4
:101B90000DF0060E52185310D8A4D1EF0DF0D3EF6C
:101BA0000DF0D9EF0DF0200E066E0E0E076ED9EF78
:101BB0000DF012000E500F10101011101210131013
:101BC00014101510D8B4E7EF0DF0E9EF0DF031EF78
:101BD0000EF0010E166EF7EF0DF0D8900E360F36A0
:101BE000103611361236133614361536162A15AE3F
:101BF000FCEF0DF0FEEF0DF0EDEF0DF00E50065C7A
:101C00000F500758105008581150095812500A58D0
:101C100013500B5814500C5815500D58D8A013EFF2
:101C20000EF015EF0EF025EF0EF00E50065E0F5081
:101C3000075A1050085A1150095A12500A5A135094
:101C40000B5A14500C5A15500D5AD89015321432A4
:101C500013321232113210320F320E32162EFEEFC4
:101C60000DF006C006F007C007F008C008F009C074
:101C700009F00AC00AF00BC00BF00CC00CF00DC04C
:101C80000DF0120008500910D8B449EF0EF04BEFD8
:101C90000EF054EF0EF008500910D8A452EF0EF0D9
:101CA00054EF0EF059EF0EF0065087EC11F0A6EF4E
:101CB0000EF020EE09F00850D9260950DA22DE5045
:101CC000DE10D8B466EF0EF068EF0EF083EF0EF082
:101CD00020EE09F00850D9260950DA2210EE03F060
:101CE0000850E1260950E222DE50E65CE650800A08
:101CF0000E6EDE50800A0E58D8B081EF0EF083EFE2
:101D00000EF0A6EF0EF020EE03F00850D926095091
:101D1000DA22DECF0AF0DDCF0BF008C0D9FF09C010
:101D2000DAFFDECF0CF0DDCF0DF00A500C24D96EB7
:101D30000B500D20DA6E06C0DFFF20EE03F00850D6
:101D4000D9260950DA22DE2A000EDD221200000117
:101D500089518A11D8A4AFEF0EF0B1EF0EF0C1EFA8
:101D60000EF085C072F086C073F02C0E746F0E0EEC
:101D7000756F87C076F088C077F039EC10F002EF0D
:101D80000FF089058A11D8A4C8EF0EF0CAEF0EF043
:101D9000DAEF0EF085C072F086C073F0010E746F3A
:101DA0000E0E756F87C076F088C077F039EC10F0B2
:101DB00002EF0FF0020E89198A11D8A4E2EF0EF09B
:101DC000E4EF0EF0F4EF0EF085C072F086C073F011
:101DD000060E746F0E0E756F87C076F088C077F0B0
:101DE00039EC10F002EF0FF085C072F086C073F08E
:101DF0000B0E746F0E0E756F87C076F088C077F08B
:101E000039EC10F0120051A008EF0FF00AEF0FF0BC
:101E100014EF0FF018C00FF019C010F016C011F039
:101E200017C012F0A7EC10F01BBE19EF0FF01BEF5C
:101E30000FF021EF0FF01AC01FF01BC020F025EFAC
:101E40000FF0000E206E000E1F6E000E1E6E000EB4
:101E50001D6E37EF0FF0000E076E200E066E16C0D7
:101E600008F017C009F042EC0EF01D4A1E2A1F5060
:101E70001D5C1E50800A1C6E2050800A1C58D8A081
:101E800044EF0FF046EF0FF02BEF0FF051B04BEF98
:101E90000FF04DEF0FF057EF0FF018C00FF019C013
:101EA00010F016C011F017C012F0A7EC10F01200DD
:101EB0008394839C82968294859685927B9C7B9466
:101EC0007A967A947D967D92050E0A6EDF0E096EE3
:101ED000BC0EE82EFED7092EFCD70A2EFAD7030E29
:101EE000ABEC0FF0D50EE82EFED700F0020EABECF7
:101EF0000FF0D50EE82EFED700F0000E076E280E6C
:101F00003CEC11F0D50EE82EFED700F0000E076E67
:101F1000280E3CEC11F0D50EE82EFED700F0000E96
:101F2000076E010E3CEC11F02A0E096E8E0EE82EA3
:101F3000FED7092EFCD7000E076E060E3CEC11F002
:101F4000000E076E0E0E3CEC11F0000E076E0C0E2C
:101F50003CEC11F01200066E06A0B1EF0FF0B3EFEB
:101F60000FF0B6EF0FF07A86B7EF0FF07A9606A271
:101F7000BCEF0FF0BEEF0FF0C1EF0FF07A84C2EFAD
:101F80000FF07A9406A4C7EF0FF0C9EF0FF0CCEF73
:101F90000FF07D86CDEF0FF07D9606A6D2EF0FF005
:101FA000D4EF0FF0D7EF0FF07D82D8EF0FF07D92D6
:101FB0005BEC11F01A0EE82EFED700D01200540E82
:101FC000F66E220EF76E000EF86E00EEB0F010EE18
:101FD00024F00900F5CFEEFFE550E150FAE10C0ED8
:101FE000F66E230EF76E000EF86E0900F5CF52F074
:101FF0000900F5CF53F001EE00F0200EEE6AE8067E
:10200000FDE100EED4F01A0EEE6AE806FDE1516A39
:10201000506A4F6A5490549200017DEF09F06EC0EF
:102020004BF06FC04CF023EF10F06CC041F06DC06E
:1020300042F04B0E436E000E446E70C045F071C00E
:1020400046F018EC07F04BC0F6FF4CC0F7FF000E4F
:10205000F86E0800F5500009D8A431EF10F033EF06
:1020600010F015EF10F0000E00016D6F000E6C6F98
:102070001200760E0001786F000E796F72C07AF050
:1020800073C07BF0000E7E6F000E7D6F000E846FBC
:10209000000E836F7A0E6C6F000E6D6F74C06EF061
:1020A00075C06FF0780E706F000E716F0FEC10F04E
:1020B00000017D517225D96E7E517321DA6E000EBA
:1020C000DF6E1200010E0A6E200E06180710D8B43B
:1020D0006CEF10F06EEF10F081EF10F0F70E0624A9
:1020E000086EFF0E0720096E095009E1050E085C15
:1020F000D8A07DEF10F07FEF10F081EF10F0000E10
:102100000A6E0AC006F0076A1200D6501F0B40097B
:10211000D66ED6880001D251D311D8A492EF10F018
:1021200094EF10F09EEF10F0D650F00B0809D66E29
:102130000B0ED46EDB0ED36EA4EF10F0F00ED6169D
:10214000000ED46E000ED36ED588D58E1200000E10
:10215000156E000E146EB8EF10F013C006F0076A8B
:1021600011C008F012C009F042EC0EF0144A152A12
:1021700014500F24D96E15501020DA6EDF50136EF4
:102180001350D8A4C6EF10F0C8EF10F0ADEF10F068
:102190001200D50EE82EFED700F0000E076E010EDD
:1021A0003CEC11F02A0E096E8E0EE82EFED7092E99
:1021B000FCD7000E076E060E3CEC11F0000E076E09
:1021C0000E0E3CEC11F0000E076E0C0E3CEC11F004
:1021D0001200608060B0EFEF10F0F1EF10F0EAEF66
:1021E00010F064CF08F0096A0850FF08086E095023
:1021F000D8A0E82A0008096E08C006F009C007F058
:102200001200D00E0624086EFF0E0720096E09503A
:102210000AE10A0E085CD8A010EF11F013EF11F0DC
:10222000010E14EF11F0000E066E076A1200065040
:102230000802F3CF0AF0F4CF0BF006500902F35076
:102240000B2607500802F3500B260AC006F00BC0FD
:1022500007F0120000001F001C001F001E001F00DE
:102260001E001F001F001E001F001E001F004D4FFC
:102270004E00E40701000100086E07B002D07B9C0D
:1022800001D07B8C08380F0BABEC0FF00850ABEC97
:102290000FF0A00E00D0E82EFDD7120081860E01AF
:1022A00092870F015899FC0E5817030E5F6F6094C8
:1022B0006088608E12007B840A0EE82EFED700D064
:1022C0007B941200F28C0E01298B2B81F28E12006E
:1022D000CEC006F0CFC007F01200ECC006F0EDC093
:1022E00007F012004FC006F050C007F01200EAC01D
:1022F00006F0EBC007F01200E8C006F0E9C007F0F6
:102300001200D0C006F0D1C007F012000200120087
:020000040020DA
:10000000FF0FFF0FFF0FFF0FFF0FFF0FFF0FFF0F80
:020000040030CA
:0C000000AAFFFFFF9FFFFFFFFFFFFFFFB5
:00000001FF
