:0400000048EF00F0D5
:1000080047820E0135A10BEF00F00DEF00F020EF55
:1000180000F07CAE12EF00F016EF00F0116A112A22
:1000280017EF00F0116A113211327C5011187F0B52
:1000380011187C6E0E01359133AB25EF00F027EFD8
:1000480000F046EF00F0010E0D6E000E0E6E000E71
:100058000F6E000E106EC0EC04F045504610D8A488
:1000680038EF00F03AEF00F040EF00F00B0ED46EDE
:10007800DC0ED36E44EF00F0000ED46E000ED36E8B
:100088000E01339B47921100BDEF05F02350800B02
:10009800306E23502324376E22AE55EF00F057EF11
:1000A80000F058EF00F037803750D8B45EEF00F01A
:1000B80060EF00F075EF00F03728D8A466EF00F085
:1000C80068EF00F070EF00F0000E206E000E216E59
:1000D800000E226E000E236E228E000E236E7DEF20
:1000E80000F0000E206E000E216E000E226E000E33
:1000F800236E2750800B301A27502724386E26AEDF
:1001080088EF00F08AEF00F08BEF00F0388038506D
:10011800D8B491EF00F093EF00F0A8EF00F0382882
:10012800D8A499EF00F09BEF00F0A3EF00F0000EC9
:10013800246E000E256E000E266E000E276E268E8B
:10014800000E276EB0EF00F0000E246E000E256E34
:10015800000E266E000E276E24502510261027103C
:10016800D8A4B9EF00F0BBEF00F0D3EF00F0000E19
:10017800206E000E216E000E226E000E236E800E81
:1001880022127F0E23123050231220C020F021C0EB
:1001980021F022C022F023C023F016EF02F03750DE
:1001A800D8A4D9EF00F0DBEF00F0E5EF00F0000E87
:1001B800206E000E216E000E226E000E236E16EFCA
:1001C80002F0385037C028F0296A285E000E295AF4
:1001D8007F0E2824316E000E2920326E20C02CF0AC
:1001E80021C02DF022C02EF023C02FF0000E206E6B
:1001F800000E216E000E226E000E236E000E336E6E
:10020800000E346E000E356E000E366E000E386E1F
:1002180046EF01F03850D8B414EF01F016EF01F0B2
:100228002DEF01F0D8902C362D362E362F36D8905B
:10023800203621362236233636AE25EF01F027EF59
:1002480001F028EF01F02080D89033363436353667
:10025800363624502C5C25502D5826502E582750C1
:100268002F58D8A03AEF01F03CEF01F045EF01F02C
:10027800368C24502C5E25502D5A26502E5A275045
:100288002F5A382A190E38644CEF01F04EEF01F05E
:100298000EEF01F02C502D102E102F10D8B457EF60
:1002A80001F059EF01F071EF01F0338071EF01F0C7
:1002B800D890203621362236233636AE66EF01F046
:1002C80068EF01F069EF01F02080D89033363436BA
:1002D800353636363106D8A0320622AE76EF01F032
:1002E80078EF01F05CEF01F0000E386E36AE7FEF6C
:1002F80001F081EF01F0A5EF01F0FF0E3314286E35
:10030800FF0E3414296EFF0E35142A6E7F0E361434
:100318002B6E285029102A102B10D8B496EF01F014
:1003280098EF01F09CEF01F0010E386EA5EF01F097
:1003380020A0A1EF01F0A3EF01F0A5EF01F098EFE5
:1003480001F03850D8B4ABEF01F0ADEF01F0D1EFC8
:1003580001F0010E2026000E21222222232223A0B2
:10036800B8EF01F0BAEF01F0D1EF01F020C028F0AA
:1003780021C029F022C02AF023C02BF02B342B32C5
:100388002A322932283228C020F029C021F02AC078
:1003980022F02BC023F0314A322A32BEDCEF01F0C2
:1003A800325008E13128D8A0DCEF01F0DEEF01F08F
:1003B800E9EF01F0000E326E3168000E206E000E7B
:1003C800216E000E226E000E236E32BEF6EF01F093
:1003D800325006E13104D8B0F4EF01F0F6EF01F045
:1003E80004EF02F0000E326E000E316E000E206E29
:1003F800000E216E000E226E000E236E000E306E6F
:1004080031C037F037A00BEF02F00DEF02F010EF1C
:1004180002F0228E11EF02F0229ED8903730236E20
:10042800C7EF00F012001A6E1A50D8B41EEF02F08F
:1004380020EF02F042EF02F015BE27EF02F025EFA1
:1004480002F042EF02F012C016F013C017F014C009
:1004580018F015C019F0161E171E181E191E162A98
:10046800000E17221822192216C01CF017C01DF002
:1004780018C01EF019C01FF04AEF02F012C01CF09D
:1004880013C01DF014C01EF015C01FF01250131039
:1004980014101510D8A453EF02F055EF02F05FEFD7
:1004A80002F0000E126E000E136E000E146E000E97
:1004B800156EF0EF02F0960E1B6E69EF02F01B2A24
:1004C800D8901F321E321D321C32000E1C14166EBC
:1004D800000E1D14176E000E1E14186EFE0E1F144B
:1004E800196E1650171018101910D8A47EEF02F0C4
:1004F80080EF02F063EF02F08EEF02F01B2A010E8C
:100508001C26000E1D221E221F22D8901F321E32CA
:100518001D321C32000E1C14166E000E1D14176EB0
:10052800000E1E14186EFF0E1F14196E16501710A9
:1005380018101910D8A4A3EF02F0A5EF02F082EF6B
:1005480002F0ADEF02F01B06D8901C361D361E36A1
:100558001F361EBEB2EF02F0B4EF02F0BCEF02F09D
:10056800020E1B60BAEF02F0BCEF02F0A7EF02F038
:100578001BB0C1EF02F0C3EF02F0C4EF02F01E9E01
:10058800D8901B321BC016F0176A186A196A16C071
:1005980019F0186A176A166A16501C1217501D129D
:1005A80018501E1219501F121A50D8B4DEEF02F05C
:1005B800E0EF02F0E8EF02F015BEE7EF02F0E5EF3A
:1005C80002F0E8EF02F01F8E1CC012F01DC013F0FD
:1005D8001EC014F01FC015F01200143415341B6E21
:1005E8001B50D8A4FAEF02F0FCEF02F006EF03F07C
:1005F800000E126E000E136E000E146E000E156EB5
:1006080073EF03F012C016F013C017F014C018F0FF
:1006180015C019F0200E16EF03F0D89019321832D1
:1006280017321632E82E11EF03F016501A6E148E98
:10063800FF0E1216FF0E1316FF0E1416000E1516D7
:10064800960E1B5E1BBE2DEF03F02BEF03F043EF5E
:1006580003F01B50800A970FD8B035EF03F037EF3F
:1006680003F039EF03F0FCEF02F0D89015321432A2
:10067800133212321B3E39EF03F05BEF03F01F0E0B
:100688001B6449EF03F04BEF03F053EF03F0FCEF6B
:1006980002F0D89012361336143615361B061B5046
:1006A800D8A459EF03F05BEF03F04DEF03F01A50B5
:1006B800D8B461EF03F063EF03F06BEF03F0151E9E
:1006C800141E131E126C000E13221422152212C0BF
:1006D80012F013C013F014C014F015C015F0120076
:1006E800000E12141A6E000E13141B6E800E1414D2
:1006F8001C6E7F0E15141D6E1A501B101C101D1039
:10070800D8A489EF03F08BEF03F093EF03F0000E0A
:10071800126E000E136E000E146E000E156E000E93
:1007280016141A6E000E17141B6E800E18141C6E09
:100738007F0E19141D6E1A501B101C101D10D8A402
:10074800A8EF03F0AAEF03F0B2EF03F0000E166E65
:10075800000E176E000E186E000E196E15AEB7EF6C
:1007680003F0B9EF03F0C2EF03F0126C131ED8B018
:10077800132A141ED8B0142A800E155619AEC7EFC6
:1007880003F0C9EF03F0D2EF03F0166C171ED8B0D0
:10079800172A181ED8B0182A800E1956000E121AD9
:1007A800000E131A000E141A800E151A000E161ACF
:1007B800000E171A000E181A800E191A1650125C1D
:1007C800175013581850145819501558D8B0EFEF3F
:1007D80003F0F1EF03F0F4EF03F0D890F5EF03F036
:1007E800D880120080968896849E7C8E818680862A
:1007F800A1EC05F0C6EC05F0000E136E010E126EAA
:1008080060EC05F085EC05F03AEC05F039C03DF0F8
:100818003AC03EF03BC03FF03CC040F03DC012F053
:100828003EC013F03FC014F040C015F0F1EC02F0E8
:1008380012C01CF013C01DF05CEC04F03DC012F0B7
:100848003EC013F03FC014F040C015F0000E166E05
:10085800000E176EA00E186E400E196E74EC03F0A1
:10086800D8A039EF04F03BEF04F057EF04F0000E86
:10087800126E000E136E980E146E410E156E3DC06A
:1008880016F03EC017F03FC018F040C019F074ECE5
:1008980003F0D8A052EF04F054EF04F057EF04F03F
:1008A800809608EF04F0808608EF04F048EF00F027
:1008B8001CA061EF04F063EF04F066EF04F07F80A2
:1008C80067EF04F07F901CA26CEF04F06EEF04F069
:1008D80071EF04F07F8272EF04F07F921CA477EF2F
:1008E80004F079EF04F07CEF04F079847DEF04F0F4
:1008F80079941CA682EF04F084EF04F087EF04F0EB
:100908007E8C88EF04F07E9C1CA88DEF04F08FEF9E
:1009180004F092EF04F0798893EF04F079981CAA18
:1009280098EF04F09AEF04F09DEF04F0798A9EEFB7
:1009380004F0799A1CACA3EF04F0A5EF04F0A8EF3B
:1009480004F07E80A9EF04F07E901CAEAEEF04F0B8
:10095800B0EF04F0B3EF04F07A80B4EF04F07A90CB
:100968001DA0B9EF04F0BBEF04F0BEEF04F07A82EB
:10097800BFEF04F07A92120045504610D8A4C7EF92
:1009880004F0C9EF04F0D3EF04F00D5041260E50E7
:1009980042220F50432210504422EDEF04F00DC0C4
:1009A80001F00EC002F00FC003F010C004F00F0EEB
:1009B800056E000E066E000E076E000E086E05EC42
:1009C80005F00150412602504222035043220450B0
:1009D800442244500DE1800E415C510E4258010EF4
:1009E8004358D8A0FAEF04F0FCEF04F004EF05F048
:1009F800000E416E000E426E000E436E000E446EF5
:100A08001200000E096E000E0A6E000E0B6E000E2C
:100A18000C6E01A012EF05F014EF05F01CEF05F0C5
:100A28000550092606500A2207500B2208500C22AE
:100A3800D8900536063607360836D8900432033281
:100A4800023201320150021003100410D8A42FEF13
:100A580005F031EF05F00DEF05F009C001F00AC00F
:100A680002F00BC003F00CC004F0120041C012F0F9
:100A780042C013F043C014F044C015F0000E17EC48
:100A880002F012C020F013C021F014C022F015C0EB
:100A980023F0000E246E000E256E610E266E450EA4
:100AA800276E4AEC00F020C039F021C03AF022C08D
:100AB8003BF023C03CF0120012C045F013C046F0D2
:100AC800D6501F0B4009D66ED688D588455046109B
:100AD800D8A471EF05F073EF05F07DEF05F0D6505F
:100AE800F00B0809D66E0B0ED46EDC0ED36E83EFB6
:100AF80005F0F00ED616000ED46E000ED36ED58E0D
:100B08001200879087928194869C8198819A86901A
:100B1800829082928F808F8289848E8C8988898A3C
:100B28008E808A808A827F907F9279947E9C799841
:100B3800799A7E907A907A921200868E0E01D2511E
:100B4800F80B0309D26FD351F80B0509D36FD08383
:100B5800D089D183B3EC05F00E01D08F1200F30ECB
:100B68000E01C617C691C751E00B1409C76FC68F8F
:100B78001200446A436A426A416A479047920001F8
:100B8800F6EF03F00E012B81F28AF28C2181298B7A
:040B9800F28E1200C7
:020000040020DA
:10000000FF0FFF0FFF0FFF0FFF0FFF0FFF0FFF0F80
:020000040030CA
:0C000000AAFFFFFF9FFFFFFFFFFFFFFFB5
:00000001FF
