:040000002FEF00F0EE
:100008005A82D9CF03F0DACF04F00E0133AB0FEFE9
:1000180000F011EF00F029EF00F094EC0DF0000172
:10002800E051E111D8A41BEF00F01DEF00F023EF21
:1000380000F00B0ED46EDB0ED36E27EF00F0000E2F
:10004800D46E000ED36E0E01339B04C0DAFF03C0DA
:0A005800D9FF5A921100E1EF11F0F8
:100E000000253031750025303275002530337500EE
:100E10005745440054554500465249004D4F4E0039
:100E200053554E0053415400544855002575000059
:100E30000D500E10D8B41FEF07F021EF07F02FEF81
:100E400007F00E5007E1050E0D5CD8B02AEF07F051
:100E50002CEF07F02FEF07F08096010E576E15501C
:100E60001610D8A436EF07F038EF07F0ADEF07F013
:100E700011C005F012C006F0000E086E1F0E076EBE
:100E80007FEC13F00F50052610500622450E052466
:100E90001F6EFF0E0620206E145007E10A0E135C31
:100EA000D8B055EF07F057EF07F082EF07F0575033
:100EB000D8A45DEF07F05FEF07F060EF07F08086E2
:100EC000D8901F34D96E2034DA6E000ED926020E67
:100ED000DA22DE2806E1DE28D8A471EF07F073EFEE
:100EE00007F0EAEF07F0D8901F34D96E2034DA6E9D
:100EF000000ED926020EDA220DC0DEFF0EC0DDFF85
:100F0000EAEF07F05750D8A488EF07F08AEF07F010
:100F10008BEF07F08096D8901F34D96E2034DA6EAC
:100F2000000ED926010EDA22DE2806E1DE28D8A43A
:100F30009CEF07F09EEF07F0EAEF07F0D8901F3420
:100F4000D96E2034DA6E000ED926010EDA220DC0D9
:100F5000DEFF0EC0DDFFEAEF07F07C8ED890113483
:100F6000D96E1234DA6EA80ED926000EDA22DE50BF
:100F70000D5CDE500E58D8A0C0EF07F0C2EF07F0AE
:100F8000E1EF07F0D8901134D96E1234DA6EC00E4A
:100F9000D926000EDA220D50DE5C0E50DE58D8A0A5
:100FA000D4EF07F0D6EF07F0E1EF07F05750D8A4E1
:100FB000DCEF07F0DEEF07F0EAEF07F08096EAEFEC
:100FC00007F05750D8A4E7EF07F0E9EF07F0EAEF92
:100FD00007F080860D500E10D8A4F1EF07F0F3EF64
:100FE00007F033EF08F00F041010D8A4FAEF07F061
:100FF000FCEF07F033EF08F0060E11181210D8A41A
:1010000004EF08F006EF08F033EF08F0000E226E50
:10101000000E216ED8902134D96E2234DA6E000E83
:10102000D926010EDA22FF0EDE6EFF0EDD6ED8909D
:101030002134D96E2234DA6E000ED926020EDA225D
:10104000FF0EDE6EFF0EDD6E214A222A225009E1DC
:101050003E0E215CD8A02FEF08F031EF08F00AEF28
:1010600008F0C8EF08F00D040E10D8A43AEF08F00D
:101070003CEF08F0C8EF08F01F0E0F181010D8A4AE
:1010800044EF08F046EF08F0C8EF08F0070E11181B
:101090001210D8A44EEF08F050EF08F0C8EF08F097
:1010A000000E1E6E000E1D6E000E246E000E236ECE
:1010B000D8902334D96E2434DA6E000ED926020E6D
:1010C000DA22DECF17F0DDCF18F0D8902334D96EB6
:1010D0002434DA6E020ED926010EDA22DECF19F0A0
:1010E000DDCF1AF01750195C1B6E18501A581C6E81
:1010F0001B501D261C501E22D8902334D96E243438
:10110000DA6E020ED926010EDA22DE2808E1DE2888
:10111000D8B48DEF08F08FEF08F0CAEF08F0D89040
:101120002334D96E2434DA6E000ED926020EDA2268
:10113000DE2806E1DE28D8A4A0EF08F0A2EF08F030
:10114000A4EF08F0CAEF08F0234A242A245009E14A
:101150003D0E235CD8A0AFEF08F0B1EF08F058EFD8
:1011600008F01DC005F01EC006F0000E086E3D0E12
:10117000076E7BEC10F005C01DF006C01EF00201EA
:10118000006901691DC005F01EC006F0C5EC13F032
:10119000000E576E120042C0D9FF43C0DAFFDECF07
:1011A000F6FFDDCFF7FF000EF86E0800F550250AB8
:1011B000D8A4DDEF08F0DFEF08F01CEF0AF042C022
:1011C000D9FF43C0DAFFDE2A000EDD22000E000147
:1011D000F36F000EF26FF2C056F0F469F569000E7D
:1011E000536E000E526E21EF09F0568242C0D9FFB5
:1011F00043C0DAFFDE2A000EDD2221EF09F0000EE7
:10120000536E010E526E21EF09F042C0D9FF43C068
:10121000DAFFDECFF6FFDDCFF7FF000EF86E080035
:10122000F550466E476A4750000AD8B41AEF09F0E5
:10123000FFEF08F04650300AD8B4F5EF08F0FFEFA2
:1012400008F052505310D8B428EF09F02AEF09F0F3
:1012500005EF09F042C0D9FF43C0DAFFDECFF6FF49
:10126000DDCFF7FF000EF86E0800F5502A0AD8A46B
:101270003CEF09F03EEF09F068EF09F042C0D9FFFA
:1012800043C0DAFFDE2A000EDD2244C0D9FF45C08C
:10129000DAFFDFCF46F0020EDE26DFCF47F0000E8A
:1012A000DD2246C0D9FF47C0DAFFDECFF2F0DDCF46
:1012B000F3F00001F3BF61EF09F05FEF09F09DEF7C
:1012C00009F05680F26DF31FD8B0F32B9DEF09F0B3
:1012D00042C0D9FF43C0DAFFDECF0BF0DDCF0CF008
:1012E000E5EC0CF00BC0F2F00CC0F3F07FEF09F06E
:1012F00042C0D9FF43C0DAFFDE2A000EDD2242C021
:10130000D9FF43C0DAFFDECFF6FFDDCFF7FF000ED7
:10131000F86E0800F5CF46F0D00E4624476E486AB6
:10132000FF0E4822485009E10A0E475CD8A09BEF07
:1013300009F09DEF09F078EF09F042C0D9FF43C0F2
:10134000DAFFDECF54F0DDCF55F054C0F6FF55C0C4
:10135000F7FF000EF86E0800F550750AD8A4B3EF39
:1013600009F0B5EF09F013EF0AF044C0D9FF45C00A
:10137000DAFFDFCF46F0020EDE26DFCF47F0000EA9
:10138000DD2246C0D9FF47C0DAFFDECF48F0DDCF0F
:1013900049F048C04AF049C04BF04C6A4D6A4E6A69
:1013A0004F6A506A516A010E5424466E000E552051
:1013B000476E42C0D9FF43C0DAFF46C0DEFF47C0D8
:1013C000DDFFFBEF09F040C020F041C021F04AC032
:1013D00022F04BC023F04CC024F04DC025F04EC08D
:1013E00026F04FC027F050C028F051C029F033EC50
:1013F0000AF032EF0AF054C0F6FF55C0F7FF000EB6
:10140000F86E0800F550466E476A4750000AD8B497
:101410000CEF0AF013EF0AF04650750AD8B4E3EF68
:1014200009F013EF0AF042C0D9FF43C0DAFFDE2A09
:10143000000EDD2232EF0AF042C0D9FF43C0DAFFCE
:10144000DECFF6FFDDCFF7FF000EF86E0800F55097
:10145000056E066A40C007F041C008F016EC10F0B7
:1014600013EF0AF012000001F5BF39EF0AF03BEF6D
:101470000AF03CEF0AF05692F5BF49EF0AF0F55139
:1014800006E1F405D8B047EF0AF049EF0AF04FEF54
:101490000AF0000E336E010E326E53EF0AF0F4C004
:1014A00032F0F5C033F0F2C034F0F3C035F022C0B2
:1014B00036F023C037F024C038F025C039F026C0FC
:1014C0003AF027C03BF028C03CF029C03DF0000EA8
:1014D0003F6E1F0E3E6E000E01019B6FE6EF0AF09D
:1014E0003E06D8A03F067C0E3E24D96E010E3F205A
:1014F000DA6E36C005F037C006F038C007F039C0E4
:1015000008F03AC009F03BC00AF03CC00BF03DC007
:101510000CF00A0E0D6E000E0E6E000E0F6E000E19
:10152000106E000E116E000E126E000E136E000E85
:10153000146EAEEC0FF005C02AF006C02BF007C009
:101540002CF008C02DF009C02EF00AC02FF00BC0FF
:1015500030F00CC031F02A50300FDF6E3206D8A0C8
:1015600033063406D8A0350636C005F037C006F07D
:1015700038C007F039C008F03AC009F03BC00AF0A3
:101580003CC00BF03DC00CF00A0E0D6E000E0E6E4E
:10159000000E0F6E000E106E000E116E000E126E19
:1015A000000E136E000E146EC7EC0EF005C036F080
:1015B00006C037F007C038F008C039F009C03AF06B
:1015C0000AC03BF00BC03CF00CC03DF03E503F1059
:1015D000D8B4EDEF0AF0EFEF0AF01FEF0BF0365042
:1015E0003710381039103A103B103C103D10D8A479
:1015F000FCEF0AF0FEEF0AF070EF0AF033BE0BEFDB
:101600000BF0335006E13204D8B009EF0BF00BEFCA
:101610000BF070EF0AF035BE16EF0BF0355008E115
:101620003404D8A016EF0BF018EF0BF01FEF0BF0FF
:1016300056B21DEF0BF01FEF0BF070EF0AF020C059
:1016400015F021C016F07C0E3E24176E010E3F20CF
:10165000186E34C019F035C01AF039EC11F01200D0
:10166000D0EC12F0CBEC13F08EEC11F0B1EC13F0E7
:10167000EFEC13F0D8C083F0D9C084F0DAC085F065
:10168000DBC086F014EC13F09E0E00017B6F000EA1
:101690007C6FD6EC13F005C07DF006C07EF0000E26
:1016A0000001806F020E7F6FDDEC10F0A00E0001D4
:1016B0007B6F000E7C6FE0EC13F005C07DF006C080
:1016C0007EF0000E0001806F020E7F6FDDEC10F0E7
:1016D000A20E00017B6F000E7C6FE5EC13F005C0DD
:1016E0007DF006C07EF0000E0001806F020E7F6F5D
:1016F000DDEC10F0A40E00017B6F000E7C6FEAECB5
:1017000013F005C07DF006C07EF0000E0001806F72
:10171000020E7F6FDDEC10F0A60E00017B6F000E55
:101720007C6FDBEC13F0010E052400017D6F000ED1
:1017300006207E6F000E806F020E7F6FDDEC10F0D2
:10174000870E00017B6F000E7C6FD1EC13F005C09B
:101750007DF006C07EF0000E0001806F040E7F6FEA
:10176000DDEC10F08B0E00017B6F000E7C6F51ECF6
:1017700013F005C07DF006C07EF0000E0001806F02
:10178000030E7F6FDDEC10F020EE8EF00F0EDE6AA0
:10179000E806FDE23FEC0FF005C08EF006C08FF0CA
:1017A000A40E0001906F000E916FA60E926F000EB6
:1017B000936F870E946F000E956FA20E966F000EBA
:1017C000976FA00E986F000E996F9E0E9A6F000E85
:1017D0009B6F8B0E9C6F000E9D6F8E0E0A6E000E1F
:1017E0000B6E22EC0CF0E5EC13F005C00DF006C01A
:1017F0000EF0EAEC13F005C00FF006C010F0DBECC1
:1018000013F005C011F006C012F051EC13F005C042
:1018100013F006C014F0000E166E000E156E18ECD4
:1018200007F0090E0001826F1E0E816FE40EE82E94
:10183000FED7812FFCD7822FFAD700F042EF0BF0B2
:101840002FEF00F0000E0F6E000E0E6E0EC008F0AF
:101850000FC009F040EC0EF054EF0CF0010E066ED4
:10186000D8900E34D96E0F34DA6E0A50D9260B5048
:10187000DA22DFCF0CF0010EDE26DFCF0DF0000EF6
:10188000DD220CC0F6FF0DC0F7FF000EF86E0D0E46
:10189000F76403D00800F55005D0F6CFE9FFF7CF85
:1018A000EAFFEF5092EC13F0D8900E34D96E0F345B
:1018B000DA6E0A50D9260B50DA22DECF0CF0DDCFDB
:1018C0000DF00CC0F6FF0DC0F7FF000EF86E0D0E08
:1018D000F76403D00800F55005D0F6CFE9FFF7CF45
:1018E000EAFFEF500009D8A478EF0CF07AEF0CF083
:1018F0002EEF0CF0000E066EC20E92EC13F0010EED
:10190000066E3A0E92EC13F0000E066EC50E92ECC7
:1019100013F0010E066E2E0E92EC13F0000E066E02
:10192000C80E92EC13F0010E066E200E92EC13F02E
:10193000000E066EC90E92EC13F0010E066E200E1C
:1019400092EC13F0000E066ECA0E92EC13F0010E2C
:10195000066E200E92EC13F0000E066ECB0E92EC8B
:1019600013F0010E066E200E92EC13F0000E066EC0
:10197000CC0E92EC13F0010E066E200E92EC13F0DA
:10198000000E066E880E92EC13F0010E066E2F0EFE
:1019900092EC13F0000E066E8B0E92EC13F0010E1B
:1019A000066E2F0E92EC13F00E4A0F2A0FBEE2EFD6
:1019B0000CF00F5009E1080E0E5CD8A0E2EF0CF01D
:1019C000E4EF0CF026EF0CF01200000E136E000E88
:1019D000126E000E116E000E106EF1EF0CF00B4A3D
:1019E0000C2A0BC0F6FF0CC0F7FF000EF86E0800C3
:1019F000F550200AD8B4FFEF0CF001EF0DF0EFEF37
:101A00000CF00BC0F6FF0CC0F7FF000EF86E0800DC
:101A1000F5CF0DF0F70E0D240E6E0F6AFF0E0F229C
:101A20000F5009E1050E0E5CD8A019EF0DF01BEF69
:101A30000DF0EFEF0CF025EF0DF0000E116E010E22
:101A4000106E0B4A0C2A5EEF0DF00BC0F6FF0CC0B7
:101A5000F7FF000EF86E0800F5500D6E0E6A0E507E
:101A6000000AD8B436EF0DF05EEF0DF00D502B0AE2
:101A7000D8B421EF0DF0060AD8B41DEF0DF05EEFDB
:101A80000DF012C005F013C006F0000E086E0A0E2D
:101A9000076E7FEC13F00BC0F6FF0CC0F7FF000ED3
:101AA000F86E0800F550055E000E065A300E05244B
:101AB000126E000E0620136E21EF0DF00BC0F6FF24
:101AC0000CC0F7FF000EF86E0800F5CF0DF0D00E39
:101AD0000D240E6E0F6AFF0E0F220F5009E10A0E41
:101AE0000E5CD8A076EF0DF078EF0DF041EF0DF021
:101AF00010501110D8A47FEF0DF081EF0DF08FEF93
:101B00000DF012C00DF013C00EF00D1E0E1E0D4A8A
:101B10000E2A0DC00BF00EC00CF093EF0DF012C0AA
:101B20000BF013C00CF012000001E051E111D8A439
:101B30009CEF0DF09EEF0DF0A2EF0DF0FC4BFD2B96
:101B4000A6EF0DF00F0EFC27000EFD233C0EFC1936
:101B5000FD11D8A4AEEF0DF0B0EF0DF0B6EF0DF023
:101B6000000EFD6F000EFC6FFA4BFB2B3C0EFA19BA
:101B7000FB11D8A4BEEF0DF0C0EF0DF0C6EF0DF0D5
:101B8000000EFB6F000EFA6FF84BF92B180EF819C8
:101B9000F911D8A4CEEF0DF0D0EF0DF0D8EF0DF085
:101BA000000EF96F000EF86FDE4BDF2B584A592AF2
:101BB000070E58185910D8A4E0EF0DF0E2EF0DF021
:101BC000E6EF0DF0000E596E000E586EF605F71197
:101BD000D8A4EDEF0DF0EFEF0DF010EF0EF0030EC7
:101BE000DC15016E000EDD15026E01500210D8A446
:101BF000FCEF0DF0FEEF0DF010EF0EF01E0EDE19F3
:101C0000DF11D8A406EF0EF008EF0EF02FEF0EF064
:101C1000000EDF6F010EDE6FF64BF72B2FEF0EF08D
:101C2000D890F635D96EF735DA6E9E0ED926010EAC
:101C3000DA22DECF01F0DDCF02F0010E0126000E28
:101C40000222DE51011807E1DF510218D8A42BEF60
:101C50000EF02DEF0EF02FEF0EF008EF0EF00C0E41
:101C6000F619F711D8A437EF0EF039EF0EF03FEF69
:101C70000EF0000EF76F000EF66FDC4BDD2B12003E
:101C800008500910D8A447EF0EF049EF0EF050EFBE
:101C90000EF0000E066E800E92EC13F0C6EF0EF002
:101CA00008040910D8A457EF0EF059EF0EF060EFBA
:101CB0000EF0000E066E860E92EC13F0C6EF0EF0DC
:101CC000020E08180910D8A468EF0EF06AEF0EF0A3
:101CD00071EF0EF0000E066E890E92EC13F0C6EF57
:101CE0000EF0030E08180910D8A479EF0EF07BEF60
:101CF0000EF082EF0EF0000E066E8C0E92EC13F0DA
:101D0000C6EF0EF0040E08180910D8A48AEF0EF0E2
:101D10008CEF0EF093EF0EF0000E066EC00E92ECFC
:101D200013F0C6EF0EF0050E08180910D8A49BEFAB
:101D30000EF09DEF0EF0A4EF0EF0000E066EC30E37
:101D400092EC13F0C6EF0EF0060E08180910D8A496
:101D5000ACEF0EF0AEEF0EF0B5EF0EF0000E066E2B
:101D6000C60E92EC13F0C6EF0EF0070E081809101D
:101D7000D8A4BDEF0EF0BFEF0EF0C6EF0EF0000ED0
:101D8000066ECD0E92EC13F0C6EF0EF0120020EEB0
:101D900015F0070EDE6AE806FDE20D500E100F107A
:101DA00010101110121013101410D8B4DAEF0EF036
:101DB000DCEF0EF02EEF0FF0010E1D6EEAEF0EF0CD
:101DC000D8900D360E360F361036113612361336C1
:101DD00014361D2A14AEEFEF0EF0F1EF0EF0E0EF27
:101DE0000EF0D890153616361736183619361A36BC
:101DF0001B361C360D50055C0E5006580F50075808
:101E0000105008581150095812500A5813500B58C6
:101E100014500C58D8A00FEF0FF011EF0FF022EF75
:101E20000FF00D50055E0E50065A0F50075A105015
:101E3000085A1150095A12500A5A13500B5A14508A
:101E40000C5A1580D89014321332123211321032DB
:101E50000F320E320D321D2EF1EF0EF015C005F0CF
:101E600016C006F017C007F018C008F019C009F036
:101E70001AC00AF01BC00BF01CC00CF01200585026
:101E80005910D8A446EF0FF048EF0FF04EEF0FF0C7
:101E90001C0E056E0E0E066EADEF0FF058045910B5
:101EA000D8A455EF0FF057EF0FF05DEF0FF0140EC1
:101EB000056E0E0E066EADEF0FF0020E581859109B
:101EC000D8A465EF0FF067EF0FF06DEF0FF0100E75
:101ED000056E0E0E066EADEF0FF0030E581859107A
:101EE000D8A475EF0FF077EF0FF07DEF0FF0280E0D
:101EF000056E0E0E066EADEF0FF0040E5818591059
:101F0000D8A485EF0FF087EF0FF08DEF0FF0180ECC
:101F1000056E0E0E066EADEF0FF0050E5818591037
:101F2000D8A495EF0FF097EF0FF09DEF0FF0240E70
:101F3000056E0E0E066EADEF0FF0060E5818591016
:101F4000D8A4A5EF0FF0A7EF0FF0ADEF0FF0200E24
:101F5000056E0E0E066EADEF0FF012000D500E1056
:101F60000F1010101110121013101410D8B4BBEF72
:101F70000FF0BDEF0FF005EF10F0010E156ECBEF77
:101F80000FF0D8900D360E360F3610361136123649
:101F900013361436152A14AED0EF0FF0D2EF0FF02F
:101FA000C1EF0FF00D50055C0E5006580F5007584A
:101FB000105008581150095812500A5813500B5815
:101FC00014500C58D8A0E7EF0FF0E9EF0FF0F9EF3D
:101FD0000FF00D50055E0E50065A0F50075A105064
:101FE000085A1150095A12500A5A13500B5A1450D9
:101FF0000C5AD890143213321232113210320F327E
:102000000E320D32152ED2EF0FF005C005F006C0CE
:1020100006F007C007F008C008F009C009F00AC0C0
:102020000AF00BC00BF00CC00CF0120007500810A7
:10203000D8B41DEF10F01FEF10F028EF10F007508C
:102040000810D8A426EF10F028EF10F02DEF10F0B4
:102050000550F2EC13F07AEF10F020EE09F0075083
:10206000D9260850DA22DE50DE10D8B43AEF10F04C
:102070003CEF10F057EF10F020EE09F00750D92692
:102080000850DA2210EE03F00750E1260850E22251
:10209000DE50E65CE650800A0D6EDE50800A0D5878
:1020A000D8B055EF10F057EF10F07AEF10F020EEA7
:1020B00003F00750D9260850DA22DECF09F0DDCF31
:1020C0000AF007C0D9FF08C0DAFFDECF0BF0DDCF82
:1020D0000CF009500B24D96E0A500C20DA6E05C0A2
:1020E000DFFF20EE03F00750D9260850DA22DE2A5F
:1020F000000EDD221200000E0A6E08BE84EF10F002
:1021000082EF10F08AEF10F0076C081ED8B0082A92
:10211000010E0A6E06BE91EF10F08FEF10F097EFF0
:1021200010F0056C061ED8B0062A010E0A1A000E21
:102130000C6E000E0B6E07500810D8B4A2EF10F012
:10214000A4EF10F0CCEF10F0010E096EACEF10F020
:10215000D89007360836092A08AEB1EF10F0B3EF71
:1021600010F0A8EF10F0D8900B360C360750055C35
:1021700008500658D8A0BFEF10F0C1EF10F0C6EF1E
:1021800010F00750055E0850065A0B80D8900832B0
:102190000732092EB3EF10F00A50D8B4D2EF10F086
:1021A000D4EF10F0D8EF10F00B6C0C1ED8B00C2A46
:1021B0000BC005F00CC006F0120000017F51801129
:1021C000D8A4E5EF10F0E7EF10F0F7EF10F07BC0C8
:1021D00068F07CC069F02C0E6A6F0E0E6B6F7DC0CC
:1021E0006CF07EC06DF084EC12F038EF11F07F05DA
:1021F0008011D8A4FEEF10F000EF11F010EF11F0F5
:102200007BC068F07CC069F0010E6A6F0E0E6B6FC8
:102210007DC06CF07EC06DF084EC12F038EF11F0F0
:10222000020E7F198011D8A418EF11F01AEF11F0E7
:102230002AEF11F07BC068F07CC069F0060E6A6F6F
:102240000E0E6B6F7DC06CF07EC06DF084EC12F0F2
:1022500038EF11F07BC068F07CC069F00B0E6A6F3C
:102260000E0E6B6F7DC06CF07EC06DF084EC12F0D2
:10227000120056A03EEF11F040EF11F04AEF11F0BE
:1022800017C00EF018C00FF015C010F016C011F0F6
:10229000F2EC12F01ABE4FEF11F051EF11F057EFC0
:1022A00011F019C01EF01AC01FF05BEF11F0000E04
:1022B0001F6E000E1E6E000E1D6E000E1C6E6DEF6A
:1022C00011F0000E066E200E056E15C007F016C048
:1022D00008F016EC10F01C4A1D2A1E501C5C1D5004
:1022E000800A1B6E1F50800A1B58D8A07AEF11F08D
:1022F0007CEF11F061EF11F056B081EF11F083EF38
:1023000011F08DEF11F017C00EF018C00FF015C0CE
:1023100010F016C011F0F2EC12F012008394839CBE
:1023200082968294859685927B9C7B947A967A9409
:102330007D967D92050E096EDF0E086EBC0EE82EAE
:10234000FED7082EFCD7092EFAD7030E26EC12F082
:10235000D50EE82EFED700F0020E26EC12F0D50EB8
:10236000E82EFED700F0000E066E280E92EC13F059
:10237000D50EE82EFED700F0000E066E280E92EC69
:1023800013F0D50EE82EFED700F0000E066E010EFB
:1023900092EC13F02A0E086E8E0EE82EFED7082E51
:1023A000FCD7000E066E060E92EC13F0000E066EC1
:1023B0000E0E92EC13F0000E066E0C0E92EC13F063
:1023C0001200480EF66E270EF76E000EF86E01EE44
:1023D0009CF010EE1AF00900F5CFEEFFE550E15049
:1023E000FAE1680EF66E260EF76E000EF86E00EE3D
:1023F000A8F010EE3AF00900F5CFEEFFE550E150FD
:10240000FAE1E20EF66E270EF76E000EF86E090086
:10241000F5CF58F00900F5CF59F002EE00F07C0E30
:10242000EE6AE806FDE101EE00F09C0EEE6AE806B9
:10243000FDE100EEE2F01C0EEE6AE806FDE1576AEF
:10244000566A5A905A92000130EF0BF0056E05A0C3
:102450002CEF12F02EEF12F031EF12F07A8632EFFD
:1024600012F07A9605A237EF12F039EF12F03CEF36
:1024700012F07A843DEF12F07A9405A442EF12F044
:1024800044EF12F047EF12F07D8648EF12F07D9690
:1024900005A64DEF12F04FEF12F052EF12F07D82D1
:1024A00053EF12F07D92BEEC13F01A0EE82EFED719
:1024B00000D0120062C066F063C067F06EEF12F0E9
:1024C00060C040F061C041F0660E426E000E436E87
:1024D00064C044F065C045F0CBEC08F066C0F6FF80
:1024E00067C0F7FF000EF86E0800F5500009D8A489
:1024F0007CEF12F07EEF12F060EF12F0000E0001A0
:10250000616F000E606F12006C0E00016E6F000EA6
:102510006F6F68C070F069C071F0000E746F000ECC
:10252000736F000E7A6F000E796F700E606F000E81
:10253000616F6AC062F06BC063F06E0E646F000E74
:10254000656F5AEC12F0000173516825D96E745111
:102550006921DA6E000EDF6E1200010E096E200E88
:1025600005180610D8B4B7EF12F0B9EF12F0CCEF9F
:1025700012F0F70E0524076EFF0E0620086E0850B5
:1025800009E1050E075CD8A0C8EF12F0CAEF12F0FF
:10259000CCEF12F0000E096E09C005F0066A1200B9
:1025A000D6501F0B4009D66ED6880001E051E111CC
:1025B000D8A4DDEF12F0DFEF12F0E9EF12F0D65001
:1025C000F00B0809D66E0B0ED46EDB0ED36EEFEF58
:1025D00012F0F00ED616000ED46E000ED36ED58813
:1025E000D58E1200000E146E000E136E03EF13F062
:1025F00012C005F0066A10C007F011C008F016EC12
:1026000010F0134A142A13500E24D96E14500F20C0
:10261000DA6EDF50126E1250D8A411EF13F013EFE0
:1026200013F0F8EF12F01200D50EE82EFED700F0EE
:10263000000E066E010E92EC13F02A0E086E8E0E3E
:10264000E82EFED7082EFCD7000E066E060E92EC82
:1026500013F0000E066E0E0E92EC13F0000E066ED6
:102660000C0E92EC13F012000800070006000700A1
:10267000060004000400050006000700060008002C
:1026800010001100120014001400150015001400B1
:1026900013001200100010004D4F4E00E40701001F
:1026A0000100608060B057EF13F059EF13F052EF64
:1026B00013F064CF07F0086A0750FF08076E085050
:1026C000D8A0E82A0008086E07C005F008C006F088
:1026D0001200D00E0524076EFF0E0620086E08506B
:1026E0000AE10A0E075CD8A078EF13F07BEF13F035
:1026F000010E7CEF13F0000E056E066A1200055005
:102700000702F3CF09F0F4CF0AF005500802F350A6
:102710000A2606500702F3500A2609C005F00AC02F
:1027200006F01200076E06B002D07B9C01D07B8CB5
:1027300007380F0B26EC12F0075026EC12F0A00E13
:1027400000D0E82EFDD7120000001F001C001F0063
:102750001E001F001E001F001F001E001F001E0085
:102760001F0081860E0192870F015899FC0E5817A1
:10277000030E5F6F60946088608E12007B840A0E87
:10278000E82EFED700D07B94120005500001F827F8
:102790000650F9231200F28C0E01298B2B81F28E48
:1027A0001200DCC005F0DDC006F01200FCC005F030
:1027B000FDC006F01200F6C005F0F7C006F01200EA
:1027C000FAC005F0FBC006F01200F8C005F0F9C031
:1027D00006F01200DEC005F0DFC006F01200889699
:0627E000120002001200CD
:020000040020DA
:10000000FF0FFF0FFF0FFF0FFF0FFF0FFF0FFF0F80
:020000040030CA
:0C000000AAFFFFFF9FFFFFFFFFFFFFFFB5
:00000001FF
